{
	"kipu-bank/contracts/KipuBank.sol": {
		"KipuBank": {
			"abi": [
				{
					"inputs": [
						{
							"internalType": "uint256",
							"name": "_withdrawThreshold",
							"type": "uint256"
						},
						{
							"internalType": "uint256",
							"name": "_bankCap",
							"type": "uint256"
						}
					],
					"stateMutability": "nonpayable",
					"type": "constructor"
				},
				{
					"inputs": [
						{
							"internalType": "uint256",
							"name": "cap",
							"type": "uint256"
						},
						{
							"internalType": "uint256",
							"name": "newTotal",
							"type": "uint256"
						}
					],
					"name": "CapExceeded",
					"type": "error"
				},
				{
					"inputs": [],
					"name": "DirectDepositDisabled",
					"type": "error"
				},
				{
					"inputs": [
						{
							"internalType": "uint256",
							"name": "requested",
							"type": "uint256"
						},
						{
							"internalType": "uint256",
							"name": "available",
							"type": "uint256"
						}
					],
					"name": "InsufficientBalance",
					"type": "error"
				},
				{
					"inputs": [],
					"name": "InvalidRecipient",
					"type": "error"
				},
				{
					"inputs": [
						{
							"internalType": "uint256",
							"name": "requested",
							"type": "uint256"
						},
						{
							"internalType": "uint256",
							"name": "threshold",
							"type": "uint256"
						}
					],
					"name": "ThresholdExceeded",
					"type": "error"
				},
				{
					"inputs": [],
					"name": "TransferFailed",
					"type": "error"
				},
				{
					"inputs": [],
					"name": "ZeroAmount",
					"type": "error"
				},
				{
					"anonymous": false,
					"inputs": [
						{
							"indexed": true,
							"internalType": "address",
							"name": "user",
							"type": "address"
						},
						{
							"indexed": false,
							"internalType": "uint256",
							"name": "amount",
							"type": "uint256"
						}
					],
					"name": "Deposit",
					"type": "event"
				},
				{
					"anonymous": false,
					"inputs": [
						{
							"indexed": true,
							"internalType": "address",
							"name": "user",
							"type": "address"
						},
						{
							"indexed": true,
							"internalType": "address",
							"name": "to",
							"type": "address"
						},
						{
							"indexed": false,
							"internalType": "uint256",
							"name": "amount",
							"type": "uint256"
						}
					],
					"name": "Withdrawal",
					"type": "event"
				},
				{
					"stateMutability": "payable",
					"type": "fallback"
				},
				{
					"inputs": [
						{
							"internalType": "address",
							"name": "user",
							"type": "address"
						}
					],
					"name": "balanceOf",
					"outputs": [
						{
							"internalType": "uint256",
							"name": "balance",
							"type": "uint256"
						}
					],
					"stateMutability": "view",
					"type": "function"
				},
				{
					"inputs": [],
					"name": "bankCap",
					"outputs": [
						{
							"internalType": "uint256",
							"name": "",
							"type": "uint256"
						}
					],
					"stateMutability": "view",
					"type": "function"
				},
				{
					"inputs": [],
					"name": "deposit",
					"outputs": [],
					"stateMutability": "payable",
					"type": "function"
				},
				{
					"inputs": [],
					"name": "depositCount",
					"outputs": [
						{
							"internalType": "uint256",
							"name": "",
							"type": "uint256"
						}
					],
					"stateMutability": "view",
					"type": "function"
				},
				{
					"inputs": [
						{
							"internalType": "address",
							"name": "",
							"type": "address"
						}
					],
					"name": "depositsBy",
					"outputs": [
						{
							"internalType": "uint64",
							"name": "",
							"type": "uint64"
						}
					],
					"stateMutability": "view",
					"type": "function"
				},
				{
					"inputs": [],
					"name": "stats",
					"outputs": [
						{
							"internalType": "uint256",
							"name": "reserves",
							"type": "uint256"
						},
						{
							"internalType": "uint256",
							"name": "deposits",
							"type": "uint256"
						},
						{
							"internalType": "uint256",
							"name": "withdrawals",
							"type": "uint256"
						},
						{
							"internalType": "uint256",
							"name": "cap",
							"type": "uint256"
						},
						{
							"internalType": "uint256",
							"name": "threshold",
							"type": "uint256"
						}
					],
					"stateMutability": "view",
					"type": "function"
				},
				{
					"inputs": [],
					"name": "totalReserves",
					"outputs": [
						{
							"internalType": "uint256",
							"name": "",
							"type": "uint256"
						}
					],
					"stateMutability": "view",
					"type": "function"
				},
				{
					"inputs": [
						{
							"internalType": "uint256",
							"name": "amount",
							"type": "uint256"
						},
						{
							"internalType": "address payable",
							"name": "to",
							"type": "address"
						}
					],
					"name": "withdraw",
					"outputs": [],
					"stateMutability": "nonpayable",
					"type": "function"
				},
				{
					"inputs": [],
					"name": "withdrawThreshold",
					"outputs": [
						{
							"internalType": "uint256",
							"name": "",
							"type": "uint256"
						}
					],
					"stateMutability": "view",
					"type": "function"
				},
				{
					"inputs": [],
					"name": "withdrawalCount",
					"outputs": [
						{
							"internalType": "uint256",
							"name": "",
							"type": "uint256"
						}
					],
					"stateMutability": "view",
					"type": "function"
				},
				{
					"inputs": [
						{
							"internalType": "address",
							"name": "",
							"type": "address"
						}
					],
					"name": "withdrawalsBy",
					"outputs": [
						{
							"internalType": "uint64",
							"name": "",
							"type": "uint64"
						}
					],
					"stateMutability": "view",
					"type": "function"
				},
				{
					"stateMutability": "payable",
					"type": "receive"
				}
			],
			"devdoc": {
				"author": "Hector Omar Ester",
				"details": "Sigue patrón checks-effects-interactions, usa errores personalizados y evita reentrancy.",
				"errors": {
					"CapExceeded(uint256,uint256)": [
						{
							"params": {
								"cap": "Límite global (bank cap).",
								"newTotal": "Total hipotético si se aceptara el depósito."
							}
						}
					],
					"InsufficientBalance(uint256,uint256)": [
						{
							"params": {
								"available": "Balance disponible del usuario.",
								"requested": "Monto solicitado."
							}
						}
					],
					"ThresholdExceeded(uint256,uint256)": [
						{
							"params": {
								"requested": "Monto solicitado.",
								"threshold": "Umbral permitido."
							}
						}
					]
				},
				"events": {
					"Deposit(address,uint256)": {
						"params": {
							"amount": "Monto depositado en wei.",
							"user": "Dirección del depositante."
						}
					},
					"Withdrawal(address,address,uint256)": {
						"params": {
							"amount": "Monto retirado en wei.",
							"to": "Destinatario del retiro.",
							"user": "Dueño de la bóveda."
						}
					}
				},
				"kind": "dev",
				"methods": {
					"balanceOf(address)": {
						"params": {
							"user": "Dirección del usuario."
						},
						"returns": {
							"balance": "Balance en wei."
						}
					},
					"constructor": {
						"params": {
							"_bankCap": "Tope global de depósitos (wei).",
							"_withdrawThreshold": "Umbral por retiro (wei)."
						}
					},
					"deposit()": {
						"custom:security": "Usa nonReentrant para coherencia, aunque no transfiere ETH saliente.",
						"details": "Sigue checks-effects-interactions. Emite `Deposit`."
					},
					"stats()": {
						"returns": {
							"cap": "Tope global.",
							"deposits": "Número de depósitos globales.",
							"reserves": "Total en bóvedas, `totalReserves`.",
							"threshold": "Umbral por retiro.",
							"withdrawals": "Número de retiros globales."
						}
					},
					"withdraw(uint256,address)": {
						"details": "Sigue checks-effects-interactions, emite `Withdrawal`.",
						"params": {
							"amount": "Monto a retirar (wei).",
							"to": "Destinatario del retiro (no puede ser address(0))."
						}
					}
				},
				"stateVariables": {
					"_locked": {
						"details": "Flag simple para protección reentrancy."
					},
					"bankCap": {
						"details": "Inmutable, definido en el despliegue."
					},
					"withdrawThreshold": {
						"details": "Inmutable, definido en el despliegue."
					}
				},
				"title": "KipuBank — bóvedas personales de ETH con retiros limitados por transacción y tope global de depósitos.",
				"version": 1
			},
			"evm": {
				"assembly": "    /* \"kipu-bank/contracts/KipuBank.sol\":427:8855  contract KipuBank {... */\n  mstore(0x40, 0xc0)\n    /* \"kipu-bank/contracts/KipuBank.sol\":4051:4293  constructor(uint256 _withdrawThreshold, uint256 _bankCap) {... */\n  callvalue\n  dup1\n  iszero\n  tag_1\n  jumpi\n  revert(0x00, 0x00)\ntag_1:\n  pop\n  mload(0x40)\n  sub(codesize, bytecodeSize)\n  dup1\n  bytecodeSize\n  dup4\n  codecopy\n  dup2\n  add\n  0x40\n  dup2\n  swap1\n  mstore\n  tag_2\n  swap2\n  tag_3\n  jump\t// in\ntag_2:\n    /* \"kipu-bank/contracts/KipuBank.sol\":4124:4147  _withdrawThreshold == 0 */\n  dup2\n  iszero\n  dup1\n    /* \"kipu-bank/contracts/KipuBank.sol\":4124:4164  _withdrawThreshold == 0 || _bankCap == 0 */\n  tag_6\n  jumpi\n  pop\n    /* \"kipu-bank/contracts/KipuBank.sol\":4151:4164  _bankCap == 0 */\n  dup1\n  iszero\n    /* \"kipu-bank/contracts/KipuBank.sol\":4124:4164  _withdrawThreshold == 0 || _bankCap == 0 */\ntag_6:\n    /* \"kipu-bank/contracts/KipuBank.sol\":4120:4185  if (_withdrawThreshold == 0 || _bankCap == 0) revert ZeroAmount() */\n  iszero\n  tag_7\n  jumpi\n    /* \"kipu-bank/contracts/KipuBank.sol\":4173:4185  ZeroAmount() */\n  mload(0x40)\n  shl(0xe0, 0x1f2a2005)\n  dup2\n  mstore\n  0x04\n  add\n  mload(0x40)\n  dup1\n  swap2\n  sub\n  swap1\n  revert\n    /* \"kipu-bank/contracts/KipuBank.sol\":4120:4185  if (_withdrawThreshold == 0 || _bankCap == 0) revert ZeroAmount() */\ntag_7:\n    /* \"kipu-bank/contracts/KipuBank.sol\":4196:4234  withdrawThreshold = _withdrawThreshold */\n  0x80\n  swap2\n  swap1\n  swap2\n  mstore\n    /* \"kipu-bank/contracts/KipuBank.sol\":4245:4263  bankCap = _bankCap */\n  0xa0\n  mstore\n    /* \"kipu-bank/contracts/KipuBank.sol\":4284:4285  0 */\n  0x00\n    /* \"kipu-bank/contracts/KipuBank.sol\":4274:4281  _locked */\n  0x06\n    /* \"kipu-bank/contracts/KipuBank.sol\":4274:4285  _locked = 0 */\n  sstore\n    /* \"kipu-bank/contracts/KipuBank.sol\":427:8855  contract KipuBank {... */\n  jump(tag_9)\n    /* \"#utility.yul\":14:357   */\ntag_3:\n    /* \"#utility.yul\":93:99   */\n  0x00\n    /* \"#utility.yul\":101:107   */\n  0x00\n    /* \"#utility.yul\":154:156   */\n  0x40\n    /* \"#utility.yul\":142:151   */\n  dup4\n    /* \"#utility.yul\":133:140   */\n  dup6\n    /* \"#utility.yul\":129:152   */\n  sub\n    /* \"#utility.yul\":125:157   */\n  slt\n    /* \"#utility.yul\":122:174   */\n  iszero\n  tag_11\n  jumpi\n    /* \"#utility.yul\":170:171   */\n  0x00\n    /* \"#utility.yul\":167:168   */\n  0x00\n    /* \"#utility.yul\":160:172   */\n  revert\n    /* \"#utility.yul\":122:174   */\ntag_11:\n  pop\n  pop\n    /* \"#utility.yul\":215:231   */\n  dup1\n  mload\n    /* \"#utility.yul\":321:323   */\n  0x20\n    /* \"#utility.yul\":306:324   */\n  swap1\n  swap2\n  add\n    /* \"#utility.yul\":300:325   */\n  mload\n    /* \"#utility.yul\":215:231   */\n  swap1\n  swap3\n    /* \"#utility.yul\":300:325   */\n  swap1\n  swap2\n  pop\n    /* \"#utility.yul\":14:357   */\n  jump\t// out\ntag_9:\n    /* \"kipu-bank/contracts/KipuBank.sol\":427:8855  contract KipuBank {... */\n  mload(0x80)\n  mload(0xa0)\n  codecopy(0x00, dataOffset(sub_0), dataSize(sub_0))\n  0x00\n  assignImmutable(\"0x6bcaf047ba4c8ac400fca43393035242dd1aabda2d6068a0c51242b97224de8d\")\n  0x00\n  assignImmutable(\"0xd67d834462ca31eaef1f30157e31659f60355143b7441e6fc7d9eae1fa79f3f8\")\n  return(0x00, dataSize(sub_0))\nstop\n\nsub_0: assembly {\n        /* \"kipu-bank/contracts/KipuBank.sol\":427:8855  contract KipuBank {... */\n      mstore(0x40, 0x80)\n      jumpi(tag_1, lt(calldatasize, 0x04))\n      shr(0xe0, calldataload(0x00))\n      dup1\n      0x760ee4c6\n      gt\n      tag_14\n      jumpi\n      dup1\n      0x760ee4c6\n      eq\n      tag_8\n      jumpi\n      dup1\n      0x8f840ddd\n      eq\n      tag_9\n      jumpi\n      dup1\n      0xbc62c3cb\n      eq\n      tag_10\n      jumpi\n      dup1\n      0xd0e30db0\n      eq\n      tag_11\n      jumpi\n      dup1\n      0xd80528ae\n      eq\n      tag_12\n      jumpi\n      dup1\n      0xecbea24d\n      eq\n      tag_13\n      jumpi\n      jump(tag_2)\n    tag_14:\n      dup1\n      0xf714ce\n      eq\n      tag_3\n      jumpi\n      dup1\n      0x2dfdf0b5\n      eq\n      tag_4\n      jumpi\n      dup1\n      0x5edf83c5\n      eq\n      tag_5\n      jumpi\n      dup1\n      0x70a08231\n      eq\n      tag_6\n      jumpi\n      dup1\n      0x71706cbe\n      eq\n      tag_7\n      jumpi\n      jump(tag_2)\n    tag_1:\n      jumpi(tag_2, calldatasize)\n        /* \"kipu-bank/contracts/KipuBank.sol\":8095:8118  DirectDepositDisabled() */\n      mload(0x40)\n      shl(0xe0, 0xb99d01c3)\n      dup2\n      mstore\n      0x04\n      add\n      mload(0x40)\n      dup1\n      swap2\n      sub\n      swap1\n      revert\n        /* \"kipu-bank/contracts/KipuBank.sol\":427:8855  contract KipuBank {... */\n    tag_2:\n        /* \"kipu-bank/contracts/KipuBank.sol\":8225:8248  DirectDepositDisabled() */\n      mload(0x40)\n      shl(0xe0, 0xb99d01c3)\n      dup2\n      mstore\n      0x04\n      add\n      mload(0x40)\n      dup1\n      swap2\n      sub\n      swap1\n      revert\n        /* \"kipu-bank/contracts/KipuBank.sol\":5971:6714  function withdraw(uint256 amount, address payable to) external nonReentrant {... */\n    tag_3:\n      callvalue\n      dup1\n      iszero\n      tag_19\n      jumpi\n      revert(0x00, 0x00)\n    tag_19:\n      pop\n      tag_20\n      tag_21\n      calldatasize\n      0x04\n      tag_22\n      jump\t// in\n    tag_21:\n      tag_23\n      jump\t// in\n    tag_20:\n      stop\n        /* \"kipu-bank/contracts/KipuBank.sol\":2461:2488  uint256 public depositCount */\n    tag_4:\n      callvalue\n      dup1\n      iszero\n      tag_24\n      jumpi\n      revert(0x00, 0x00)\n    tag_24:\n      pop\n      tag_25\n      sload(0x01)\n      dup2\n      jump\n    tag_25:\n      mload(0x40)\n        /* \"#utility.yul\":640:665   */\n      swap1\n      dup2\n      mstore\n        /* \"#utility.yul\":628:630   */\n      0x20\n        /* \"#utility.yul\":613:631   */\n      add\n        /* \"kipu-bank/contracts/KipuBank.sol\":2461:2488  uint256 public depositCount */\n    tag_27:\n      mload(0x40)\n      dup1\n      swap2\n      sub\n      swap1\n      return\n        /* \"kipu-bank/contracts/KipuBank.sol\":2759:2803  mapping(address => uint64) public depositsBy */\n    tag_5:\n      callvalue\n      dup1\n      iszero\n      tag_29\n      jumpi\n      revert(0x00, 0x00)\n    tag_29:\n      pop\n      tag_30\n      tag_31\n      calldatasize\n      0x04\n      tag_32\n      jump\t// in\n    tag_31:\n      mstore(0x20, 0x04)\n      0x00\n      swap1\n      dup2\n      mstore\n      0x40\n      swap1\n      keccak256\n      sload\n      0xffffffffffffffff\n      and\n      dup2\n      jump\n    tag_30:\n      mload(0x40)\n        /* \"#utility.yul\":1110:1128   */\n      0xffffffffffffffff\n        /* \"#utility.yul\":1098:1129   */\n      swap1\n      swap2\n      and\n        /* \"#utility.yul\":1080:1130   */\n      dup2\n      mstore\n        /* \"#utility.yul\":1068:1070   */\n      0x20\n        /* \"#utility.yul\":1053:1071   */\n      add\n        /* \"kipu-bank/contracts/KipuBank.sol\":2759:2803  mapping(address => uint64) public depositsBy */\n      tag_27\n        /* \"#utility.yul\":936:1136   */\n      jump\n        /* \"kipu-bank/contracts/KipuBank.sol\":7063:7176  function balanceOf(address user) external view returns (uint256 balance) {... */\n    tag_6:\n      callvalue\n      dup1\n      iszero\n      tag_36\n      jumpi\n      revert(0x00, 0x00)\n    tag_36:\n      pop\n      tag_25\n      tag_38\n      calldatasize\n      0x04\n      tag_32\n      jump\t// in\n    tag_38:\n      sub(shl(0xa0, 0x01), 0x01)\n        /* \"kipu-bank/contracts/KipuBank.sol\":7157:7168  vault[user] */\n      and\n        /* \"kipu-bank/contracts/KipuBank.sol\":7119:7134  uint256 balance */\n      0x00\n        /* \"kipu-bank/contracts/KipuBank.sol\":7157:7168  vault[user] */\n      swap1\n      dup2\n      mstore\n        /* \"kipu-bank/contracts/KipuBank.sol\":7157:7162  vault */\n      0x03\n        /* \"kipu-bank/contracts/KipuBank.sol\":7157:7168  vault[user] */\n      0x20\n      mstore\n      0x40\n      swap1\n      keccak256\n      sload\n      swap1\n        /* \"kipu-bank/contracts/KipuBank.sol\":7063:7176  function balanceOf(address user) external view returns (uint256 balance) {... */\n      jump\n        /* \"kipu-bank/contracts/KipuBank.sol\":2555:2585  uint256 public withdrawalCount */\n    tag_7:\n      callvalue\n      dup1\n      iszero\n      tag_41\n      jumpi\n      revert(0x00, 0x00)\n    tag_41:\n      pop\n      tag_25\n      sload(0x02)\n      dup2\n      jump\n        /* \"kipu-bank/contracts/KipuBank.sol\":2081:2123  uint256 public immutable withdrawThreshold */\n    tag_8:\n      callvalue\n      dup1\n      iszero\n      tag_45\n      jumpi\n      revert(0x00, 0x00)\n    tag_45:\n      pop\n      tag_25\n      immutable(\"0xd67d834462ca31eaef1f30157e31659f60355143b7441e6fc7d9eae1fa79f3f8\")\n      dup2\n      jump\n        /* \"kipu-bank/contracts/KipuBank.sol\":2363:2391  uint256 public totalReserves */\n    tag_9:\n      callvalue\n      dup1\n      iszero\n      tag_49\n      jumpi\n      revert(0x00, 0x00)\n    tag_49:\n      pop\n      tag_25\n      sload(0x00)\n      dup2\n      jump\n        /* \"kipu-bank/contracts/KipuBank.sol\":2888:2935  mapping(address => uint64) public withdrawalsBy */\n    tag_10:\n      callvalue\n      dup1\n      iszero\n      tag_53\n      jumpi\n      revert(0x00, 0x00)\n    tag_53:\n      pop\n      tag_30\n      tag_55\n      calldatasize\n      0x04\n      tag_32\n      jump\t// in\n    tag_55:\n      mstore(0x20, 0x05)\n      0x00\n      swap1\n      dup2\n      mstore\n      0x40\n      swap1\n      keccak256\n      sload\n      0xffffffffffffffff\n      and\n      dup2\n      jump\n        /* \"kipu-bank/contracts/KipuBank.sol\":5141:5706  function deposit() external payable nonReentrant {... */\n    tag_11:\n      tag_20\n      tag_59\n      jump\t// in\n        /* \"kipu-bank/contracts/KipuBank.sol\":7506:7767  function stats()... */\n    tag_12:\n      callvalue\n      dup1\n      iszero\n      tag_60\n      jumpi\n      revert(0x00, 0x00)\n    tag_60:\n      pop\n        /* \"kipu-bank/contracts/KipuBank.sol\":7573:7589  uint256 reserves */\n      0x00\n        /* \"kipu-bank/contracts/KipuBank.sol\":7686:7699  totalReserves */\n      sload\n        /* \"kipu-bank/contracts/KipuBank.sol\":7701:7713  depositCount */\n      sload(0x01)\n        /* \"kipu-bank/contracts/KipuBank.sol\":7715:7730  withdrawalCount */\n      sload(0x02)\n        /* \"kipu-bank/contracts/KipuBank.sol\":7506:7767  function stats()... */\n      0x40\n      dup1\n      mload\n        /* \"#utility.yul\":1400:1425   */\n      swap4\n      dup5\n      mstore\n        /* \"#utility.yul\":1456:1458   */\n      0x20\n        /* \"#utility.yul\":1441:1459   */\n      dup5\n      add\n        /* \"#utility.yul\":1434:1468   */\n      swap3\n      swap1\n      swap3\n      mstore\n        /* \"#utility.yul\":1484:1502   */\n      swap1\n      dup3\n      add\n        /* \"#utility.yul\":1477:1511   */\n      mstore\n        /* \"kipu-bank/contracts/KipuBank.sol\":7732:7739  bankCap */\n      immutable(\"0x6bcaf047ba4c8ac400fca43393035242dd1aabda2d6068a0c51242b97224de8d\")\n        /* \"#utility.yul\":1542:1544   */\n      0x60\n        /* \"#utility.yul\":1527:1545   */\n      dup3\n      add\n        /* \"#utility.yul\":1520:1554   */\n      mstore\n        /* \"kipu-bank/contracts/KipuBank.sol\":7741:7758  withdrawThreshold */\n      immutable(\"0xd67d834462ca31eaef1f30157e31659f60355143b7441e6fc7d9eae1fa79f3f8\")\n        /* \"#utility.yul\":1585:1588   */\n      0x80\n        /* \"#utility.yul\":1570:1589   */\n      dup3\n      add\n        /* \"#utility.yul\":1563:1598   */\n      mstore\n        /* \"#utility.yul\":1387:1390   */\n      0xa0\n        /* \"#utility.yul\":1372:1391   */\n      add\n        /* \"kipu-bank/contracts/KipuBank.sol\":7506:7767  function stats()... */\n      tag_27\n        /* \"#utility.yul\":1141:1604   */\n      jump\n        /* \"kipu-bank/contracts/KipuBank.sol\":2257:2289  uint256 public immutable bankCap */\n    tag_13:\n      callvalue\n      dup1\n      iszero\n      tag_65\n      jumpi\n      revert(0x00, 0x00)\n    tag_65:\n      pop\n      tag_25\n      immutable(\"0x6bcaf047ba4c8ac400fca43393035242dd1aabda2d6068a0c51242b97224de8d\")\n      dup2\n      jump\n        /* \"kipu-bank/contracts/KipuBank.sol\":5971:6714  function withdraw(uint256 amount, address payable to) external nonReentrant {... */\n    tag_23:\n        /* \"kipu-bank/contracts/KipuBank.sol\":4597:4604  _locked */\n      sload(0x06)\n        /* \"kipu-bank/contracts/KipuBank.sol\":4608:4609  1 */\n      0x01\n        /* \"kipu-bank/contracts/KipuBank.sol\":4597:4609  _locked == 1 */\n      sub\n        /* \"kipu-bank/contracts/KipuBank.sol\":4593:4634  if (_locked == 1) revert TransferFailed() */\n      tag_70\n      jumpi\n        /* \"kipu-bank/contracts/KipuBank.sol\":4618:4634  TransferFailed() */\n      mload(0x40)\n      shl(0xe3, 0x12171d83)\n      dup2\n      mstore\n      0x04\n      add\n      mload(0x40)\n      dup1\n      swap2\n      sub\n      swap1\n      revert\n        /* \"kipu-bank/contracts/KipuBank.sol\":4593:4634  if (_locked == 1) revert TransferFailed() */\n    tag_70:\n        /* \"kipu-bank/contracts/KipuBank.sol\":4687:4688  1 */\n      0x01\n        /* \"kipu-bank/contracts/KipuBank.sol\":4677:4684  _locked */\n      0x06\n        /* \"kipu-bank/contracts/KipuBank.sol\":4677:4688  _locked = 1 */\n      sstore\n        /* \"kipu-bank/contracts/KipuBank.sol\":6072:6073  0 */\n      0x00\n        /* \"kipu-bank/contracts/KipuBank.sol\":6062:6073  amount == 0 */\n      dup3\n      swap1\n      sub\n        /* \"kipu-bank/contracts/KipuBank.sol\":6058:6094  if (amount == 0) revert ZeroAmount() */\n      tag_72\n      jumpi\n        /* \"kipu-bank/contracts/KipuBank.sol\":6082:6094  ZeroAmount() */\n      mload(0x40)\n      shl(0xe0, 0x1f2a2005)\n      dup2\n      mstore\n      0x04\n      add\n      mload(0x40)\n      dup1\n      swap2\n      sub\n      swap1\n      revert\n        /* \"kipu-bank/contracts/KipuBank.sol\":6058:6094  if (amount == 0) revert ZeroAmount() */\n    tag_72:\n      sub(shl(0xa0, 0x01), 0x01)\n        /* \"kipu-bank/contracts/KipuBank.sol\":6109:6125  to == address(0) */\n      dup2\n      and\n        /* \"kipu-bank/contracts/KipuBank.sol\":6105:6152  if (to == address(0)) revert InvalidRecipient() */\n      tag_73\n      jumpi\n        /* \"kipu-bank/contracts/KipuBank.sol\":6134:6152  InvalidRecipient() */\n      mload(0x40)\n      shl(0xe1, 0x4e469669)\n      dup2\n      mstore\n      0x04\n      add\n      mload(0x40)\n      dup1\n      swap2\n      sub\n      swap1\n      revert\n        /* \"kipu-bank/contracts/KipuBank.sol\":6105:6152  if (to == address(0)) revert InvalidRecipient() */\n    tag_73:\n        /* \"kipu-bank/contracts/KipuBank.sol\":6176:6193  withdrawThreshold */\n      immutable(\"0xd67d834462ca31eaef1f30157e31659f60355143b7441e6fc7d9eae1fa79f3f8\")\n        /* \"kipu-bank/contracts/KipuBank.sol\":6167:6173  amount */\n      dup3\n        /* \"kipu-bank/contracts/KipuBank.sol\":6167:6193  amount > withdrawThreshold */\n      gt\n        /* \"kipu-bank/contracts/KipuBank.sol\":6163:6246  if (amount > withdrawThreshold) revert ThresholdExceeded(amount, withdrawThreshold) */\n      iszero\n      tag_74\n      jumpi\n        /* \"kipu-bank/contracts/KipuBank.sol\":6202:6246  ThresholdExceeded(amount, withdrawThreshold) */\n      mload(0x40)\n      shl(0xe2, 0x3ddd9ffd)\n      dup2\n      mstore\n      0x04\n      dup2\n      add\n        /* \"#utility.yul\":1783:1808   */\n      dup4\n      swap1\n      mstore\n        /* \"kipu-bank/contracts/KipuBank.sol\":6228:6245  withdrawThreshold */\n      immutable(\"0xd67d834462ca31eaef1f30157e31659f60355143b7441e6fc7d9eae1fa79f3f8\")\n        /* \"#utility.yul\":1824:1842   */\n      0x24\n      dup3\n      add\n        /* \"#utility.yul\":1817:1851   */\n      mstore\n        /* \"#utility.yul\":1756:1774   */\n      0x44\n      add\n        /* \"kipu-bank/contracts/KipuBank.sol\":6202:6246  ThresholdExceeded(amount, withdrawThreshold) */\n    tag_75:\n      mload(0x40)\n      dup1\n      swap2\n      sub\n      swap1\n      revert\n        /* \"kipu-bank/contracts/KipuBank.sol\":6163:6246  if (amount > withdrawThreshold) revert ThresholdExceeded(amount, withdrawThreshold) */\n    tag_74:\n        /* \"kipu-bank/contracts/KipuBank.sol\":6283:6293  msg.sender */\n      caller\n        /* \"kipu-bank/contracts/KipuBank.sol\":6259:6274  uint256 balance */\n      0x00\n        /* \"kipu-bank/contracts/KipuBank.sol\":6277:6294  vault[msg.sender] */\n      swap1\n      dup2\n      mstore\n        /* \"kipu-bank/contracts/KipuBank.sol\":6277:6282  vault */\n      0x03\n        /* \"kipu-bank/contracts/KipuBank.sol\":6277:6294  vault[msg.sender] */\n      0x20\n      mstore\n      0x40\n      swap1\n      keccak256\n      sload\n        /* \"kipu-bank/contracts/KipuBank.sol\":6309:6325  amount > balance */\n      dup1\n      dup4\n      gt\n        /* \"kipu-bank/contracts/KipuBank.sol\":6305:6370  if (amount > balance) revert InsufficientBalance(amount, balance) */\n      iszero\n      tag_77\n      jumpi\n        /* \"kipu-bank/contracts/KipuBank.sol\":6334:6370  InsufficientBalance(amount, balance) */\n      mload(0x40)\n      shl(0xe0, 0xcf479181)\n      dup2\n      mstore\n      0x04\n      dup2\n      add\n        /* \"#utility.yul\":1783:1808   */\n      dup5\n      swap1\n      mstore\n        /* \"#utility.yul\":1824:1842   */\n      0x24\n      dup2\n      add\n        /* \"#utility.yul\":1817:1851   */\n      dup3\n      swap1\n      mstore\n        /* \"#utility.yul\":1756:1774   */\n      0x44\n      add\n        /* \"kipu-bank/contracts/KipuBank.sol\":6334:6370  InsufficientBalance(amount, balance) */\n      tag_75\n        /* \"#utility.yul\":1609:1857   */\n      jump\n        /* \"kipu-bank/contracts/KipuBank.sol\":6305:6370  if (amount > balance) revert InsufficientBalance(amount, balance) */\n    tag_77:\n        /* \"kipu-bank/contracts/KipuBank.sol\":6423:6439  balance - amount */\n      tag_79\n        /* \"kipu-bank/contracts/KipuBank.sol\":6433:6439  amount */\n      dup4\n        /* \"kipu-bank/contracts/KipuBank.sol\":6423:6430  balance */\n      dup3\n        /* \"kipu-bank/contracts/KipuBank.sol\":6423:6439  balance - amount */\n      tag_80\n      jump\t// in\n    tag_79:\n        /* \"kipu-bank/contracts/KipuBank.sol\":6409:6419  msg.sender */\n      caller\n        /* \"kipu-bank/contracts/KipuBank.sol\":6403:6420  vault[msg.sender] */\n      0x00\n      swap1\n      dup2\n      mstore\n        /* \"kipu-bank/contracts/KipuBank.sol\":6403:6408  vault */\n      0x03\n        /* \"kipu-bank/contracts/KipuBank.sol\":6403:6420  vault[msg.sender] */\n      0x20\n      mstore\n      0x40\n      dup2\n      keccak256\n        /* \"kipu-bank/contracts/KipuBank.sol\":6403:6439  vault[msg.sender] = balance - amount */\n      swap2\n      swap1\n      swap2\n      sstore\n        /* \"kipu-bank/contracts/KipuBank.sol\":6450:6473  totalReserves -= amount */\n      dup1\n      sload\n        /* \"kipu-bank/contracts/KipuBank.sol\":6467:6473  amount */\n      dup5\n      swap2\n        /* \"kipu-bank/contracts/KipuBank.sol\":6403:6420  vault[msg.sender] */\n      swap1\n      dup2\n      swap1\n        /* \"kipu-bank/contracts/KipuBank.sol\":6450:6473  totalReserves -= amount */\n      tag_81\n      swap1\n        /* \"kipu-bank/contracts/KipuBank.sol\":6467:6473  amount */\n      dup5\n      swap1\n        /* \"kipu-bank/contracts/KipuBank.sol\":6450:6473  totalReserves -= amount */\n      tag_80\n      jump\t// in\n    tag_81:\n      swap1\n      swap2\n      sstore\n      pop\n      pop\n        /* \"kipu-bank/contracts/KipuBank.sol\":6509:6524  withdrawalCount */\n      0x02\n        /* \"kipu-bank/contracts/KipuBank.sol\":6509:6529  withdrawalCount += 1 */\n      dup1\n      sload\n        /* \"kipu-bank/contracts/KipuBank.sol\":6528:6529  1 */\n      0x01\n        /* \"kipu-bank/contracts/KipuBank.sol\":6509:6529  withdrawalCount += 1 */\n      swap1\n      dup2\n      add\n      swap1\n      swap2\n      sstore\n        /* \"kipu-bank/contracts/KipuBank.sol\":6558:6568  msg.sender */\n      caller\n      0x00\n        /* \"kipu-bank/contracts/KipuBank.sol\":6544:6569  withdrawalsBy[msg.sender] */\n      swap1\n      dup2\n      mstore\n        /* \"kipu-bank/contracts/KipuBank.sol\":6544:6557  withdrawalsBy */\n      0x05\n        /* \"kipu-bank/contracts/KipuBank.sol\":6544:6569  withdrawalsBy[msg.sender] */\n      0x20\n      mstore\n      0x40\n      swap1\n      keccak256\n        /* \"kipu-bank/contracts/KipuBank.sol\":6544:6574  withdrawalsBy[msg.sender] += 1 */\n      dup1\n      sload\n      not(0xffffffffffffffff)\n      dup2\n      and\n      0xffffffffffffffff\n      swap2\n      dup3\n      and\n      swap1\n      swap4\n      add\n      and\n      swap2\n      swap1\n      swap2\n      or\n      swap1\n      sstore\n        /* \"kipu-bank/contracts/KipuBank.sol\":6623:6654  _safeTransferNative(to, amount) */\n      tag_82\n        /* \"kipu-bank/contracts/KipuBank.sol\":6643:6645  to */\n      dup3\n        /* \"kipu-bank/contracts/KipuBank.sol\":6647:6653  amount */\n      dup5\n        /* \"kipu-bank/contracts/KipuBank.sol\":6623:6642  _safeTransferNative */\n      tag_83\n        /* \"kipu-bank/contracts/KipuBank.sol\":6623:6654  _safeTransferNative(to, amount) */\n      jump\t// in\n    tag_82:\n        /* \"kipu-bank/contracts/KipuBank.sol\":6672:6706  Withdrawal(msg.sender, to, amount) */\n      mload(0x40)\n        /* \"#utility.yul\":640:665   */\n      dup4\n      dup2\n      mstore\n      sub(shl(0xa0, 0x01), 0x01)\n        /* \"kipu-bank/contracts/KipuBank.sol\":6672:6706  Withdrawal(msg.sender, to, amount) */\n      dup4\n      and\n      swap1\n        /* \"kipu-bank/contracts/KipuBank.sol\":6683:6693  msg.sender */\n      caller\n      swap1\n        /* \"kipu-bank/contracts/KipuBank.sol\":6672:6706  Withdrawal(msg.sender, to, amount) */\n      0x2717ead6b9200dd235aad468c9809ea400fe33ac69b5bfaa6d3e90fc922b6398\n      swap1\n        /* \"#utility.yul\":628:630   */\n      0x20\n        /* \"#utility.yul\":613:631   */\n      add\n        /* \"kipu-bank/contracts/KipuBank.sol\":6672:6706  Withdrawal(msg.sender, to, amount) */\n      mload(0x40)\n      dup1\n      swap2\n      sub\n      swap1\n      log3\n      pop\n      pop\n        /* \"kipu-bank/contracts/KipuBank.sol\":4721:4722  0 */\n      0x00\n        /* \"kipu-bank/contracts/KipuBank.sol\":4711:4718  _locked */\n      0x06\n        /* \"kipu-bank/contracts/KipuBank.sol\":4711:4722  _locked = 0 */\n      sstore\n      pop\n        /* \"kipu-bank/contracts/KipuBank.sol\":5971:6714  function withdraw(uint256 amount, address payable to) external nonReentrant {... */\n      jump\t// out\n        /* \"kipu-bank/contracts/KipuBank.sol\":5141:5706  function deposit() external payable nonReentrant {... */\n    tag_59:\n        /* \"kipu-bank/contracts/KipuBank.sol\":4597:4604  _locked */\n      sload(0x06)\n        /* \"kipu-bank/contracts/KipuBank.sol\":4608:4609  1 */\n      0x01\n        /* \"kipu-bank/contracts/KipuBank.sol\":4597:4609  _locked == 1 */\n      sub\n        /* \"kipu-bank/contracts/KipuBank.sol\":4593:4634  if (_locked == 1) revert TransferFailed() */\n      tag_87\n      jumpi\n        /* \"kipu-bank/contracts/KipuBank.sol\":4618:4634  TransferFailed() */\n      mload(0x40)\n      shl(0xe3, 0x12171d83)\n      dup2\n      mstore\n      0x04\n      add\n      mload(0x40)\n      dup1\n      swap2\n      sub\n      swap1\n      revert\n        /* \"kipu-bank/contracts/KipuBank.sol\":4593:4634  if (_locked == 1) revert TransferFailed() */\n    tag_87:\n        /* \"kipu-bank/contracts/KipuBank.sol\":4687:4688  1 */\n      0x01\n        /* \"kipu-bank/contracts/KipuBank.sol\":4677:4684  _locked */\n      0x06\n        /* \"kipu-bank/contracts/KipuBank.sol\":4677:4688  _locked = 1 */\n      sstore\n        /* \"kipu-bank/contracts/KipuBank.sol\":5218:5227  msg.value */\n      callvalue\n        /* \"kipu-bank/contracts/KipuBank.sol\":5201:5215  uint256 amount */\n      0x00\n        /* \"kipu-bank/contracts/KipuBank.sol\":5242:5253  amount == 0 */\n      dup2\n      swap1\n      sub\n        /* \"kipu-bank/contracts/KipuBank.sol\":5238:5274  if (amount == 0) revert ZeroAmount() */\n      tag_89\n      jumpi\n        /* \"kipu-bank/contracts/KipuBank.sol\":5262:5274  ZeroAmount() */\n      mload(0x40)\n      shl(0xe0, 0x1f2a2005)\n      dup2\n      mstore\n      0x04\n      add\n      mload(0x40)\n      dup1\n      swap2\n      sub\n      swap1\n      revert\n        /* \"kipu-bank/contracts/KipuBank.sol\":5238:5274  if (amount == 0) revert ZeroAmount() */\n    tag_89:\n        /* \"kipu-bank/contracts/KipuBank.sol\":5306:5322  uint256 newTotal */\n      0x00\n        /* \"kipu-bank/contracts/KipuBank.sol\":5341:5347  amount */\n      dup2\n        /* \"kipu-bank/contracts/KipuBank.sol\":5325:5338  totalReserves */\n      sload(0x00)\n        /* \"kipu-bank/contracts/KipuBank.sol\":5325:5347  totalReserves + amount */\n      tag_90\n      swap2\n      swap1\n      tag_91\n      jump\t// in\n    tag_90:\n        /* \"kipu-bank/contracts/KipuBank.sol\":5306:5347  uint256 newTotal = totalReserves + amount */\n      swap1\n      pop\n        /* \"kipu-bank/contracts/KipuBank.sol\":5373:5380  bankCap */\n      immutable(\"0x6bcaf047ba4c8ac400fca43393035242dd1aabda2d6068a0c51242b97224de8d\")\n        /* \"kipu-bank/contracts/KipuBank.sol\":5362:5370  newTotal */\n      dup2\n        /* \"kipu-bank/contracts/KipuBank.sol\":5362:5380  newTotal > bankCap */\n      gt\n        /* \"kipu-bank/contracts/KipuBank.sol\":5358:5419  if (newTotal > bankCap) revert CapExceeded(bankCap, newTotal) */\n      iszero\n      tag_92\n      jumpi\n        /* \"kipu-bank/contracts/KipuBank.sol\":5389:5419  CapExceeded(bankCap, newTotal) */\n      mload(0x40)\n      shl(0xe0, 0xf480e285)\n      dup2\n      mstore\n        /* \"kipu-bank/contracts/KipuBank.sol\":5401:5408  bankCap */\n      immutable(\"0x6bcaf047ba4c8ac400fca43393035242dd1aabda2d6068a0c51242b97224de8d\")\n        /* \"kipu-bank/contracts/KipuBank.sol\":5389:5419  CapExceeded(bankCap, newTotal) */\n      0x04\n      dup3\n      add\n        /* \"#utility.yul\":1783:1808   */\n      mstore\n        /* \"#utility.yul\":1824:1842   */\n      0x24\n      dup2\n      add\n        /* \"#utility.yul\":1817:1851   */\n      dup3\n      swap1\n      mstore\n        /* \"#utility.yul\":1756:1774   */\n      0x44\n      add\n        /* \"kipu-bank/contracts/KipuBank.sol\":5389:5419  CapExceeded(bankCap, newTotal) */\n      tag_75\n        /* \"#utility.yul\":1609:1857   */\n      jump\n        /* \"kipu-bank/contracts/KipuBank.sol\":5358:5419  if (newTotal > bankCap) revert CapExceeded(bankCap, newTotal) */\n    tag_92:\n        /* \"kipu-bank/contracts/KipuBank.sol\":5458:5468  msg.sender */\n      caller\n        /* \"kipu-bank/contracts/KipuBank.sol\":5452:5469  vault[msg.sender] */\n      0x00\n      swap1\n      dup2\n      mstore\n        /* \"kipu-bank/contracts/KipuBank.sol\":5452:5457  vault */\n      0x03\n        /* \"kipu-bank/contracts/KipuBank.sol\":5452:5469  vault[msg.sender] */\n      0x20\n      mstore\n      0x40\n      dup2\n      keccak256\n        /* \"kipu-bank/contracts/KipuBank.sol\":5452:5479  vault[msg.sender] += amount */\n      dup1\n      sload\n        /* \"kipu-bank/contracts/KipuBank.sol\":5473:5479  amount */\n      dup5\n      swap3\n        /* \"kipu-bank/contracts/KipuBank.sol\":5452:5469  vault[msg.sender] */\n      swap1\n        /* \"kipu-bank/contracts/KipuBank.sol\":5452:5479  vault[msg.sender] += amount */\n      tag_94\n      swap1\n        /* \"kipu-bank/contracts/KipuBank.sol\":5473:5479  amount */\n      dup5\n      swap1\n        /* \"kipu-bank/contracts/KipuBank.sol\":5452:5479  vault[msg.sender] += amount */\n      tag_91\n      jump\t// in\n    tag_94:\n      swap1\n      swap2\n      sstore\n      pop\n      pop\n        /* \"kipu-bank/contracts/KipuBank.sol\":5490:5503  totalReserves */\n      0x00\n        /* \"kipu-bank/contracts/KipuBank.sol\":5490:5514  totalReserves = newTotal */\n      dup2\n      dup2\n      sstore\n        /* \"kipu-bank/contracts/KipuBank.sol\":5566:5567  1 */\n      0x01\n        /* \"kipu-bank/contracts/KipuBank.sol\":5550:5567  depositCount += 1 */\n      dup1\n      sload\n      dup2\n      add\n      dup2\n      sstore\n        /* \"kipu-bank/contracts/KipuBank.sol\":5593:5603  msg.sender */\n      caller\n        /* \"kipu-bank/contracts/KipuBank.sol\":5582:5604  depositsBy[msg.sender] */\n      dup1\n      dup4\n      mstore\n        /* \"kipu-bank/contracts/KipuBank.sol\":5582:5592  depositsBy */\n      0x04\n        /* \"kipu-bank/contracts/KipuBank.sol\":5582:5604  depositsBy[msg.sender] */\n      0x20\n      swap1\n      dup2\n      mstore\n      0x40\n      swap4\n      dup5\n      swap1\n      keccak256\n        /* \"kipu-bank/contracts/KipuBank.sol\":5582:5609  depositsBy[msg.sender] += 1 */\n      dup1\n      sload\n      not(0xffffffffffffffff)\n      dup2\n      and\n      0xffffffffffffffff\n      swap2\n      dup3\n      and\n      swap1\n      swap6\n      add\n      and\n      swap4\n      swap1\n      swap4\n      or\n      swap1\n      swap3\n      sstore\n        /* \"kipu-bank/contracts/KipuBank.sol\":5671:5698  Deposit(msg.sender, amount) */\n      swap2\n      mload\n        /* \"#utility.yul\":640:665   */\n      dup5\n      dup2\n      mstore\n        /* \"kipu-bank/contracts/KipuBank.sol\":5671:5698  Deposit(msg.sender, amount) */\n      0xe1fffcc4923d04b559f4d29a8bfc6cda04eb5b0d3c460751c2402c5c5cc9109c\n      swap2\n        /* \"#utility.yul\":613:631   */\n      add\n        /* \"kipu-bank/contracts/KipuBank.sol\":5671:5698  Deposit(msg.sender, amount) */\n      mload(0x40)\n      dup1\n      swap2\n      sub\n      swap1\n      log2\n      pop\n      pop\n        /* \"kipu-bank/contracts/KipuBank.sol\":4721:4722  0 */\n      0x00\n        /* \"kipu-bank/contracts/KipuBank.sol\":4711:4718  _locked */\n      0x06\n        /* \"kipu-bank/contracts/KipuBank.sol\":4711:4722  _locked = 0 */\n      sstore\n        /* \"kipu-bank/contracts/KipuBank.sol\":5141:5706  function deposit() external payable nonReentrant {... */\n      jump\t// out\n        /* \"kipu-bank/contracts/KipuBank.sol\":8677:8852  function _safeTransferNative(address payable to, uint256 amount) private {... */\n    tag_83:\n        /* \"kipu-bank/contracts/KipuBank.sol\":8762:8769  bool ok */\n      0x00\n        /* \"kipu-bank/contracts/KipuBank.sol\":8775:8777  to */\n      dup3\n      sub(shl(0xa0, 0x01), 0x01)\n        /* \"kipu-bank/contracts/KipuBank.sol\":8775:8782  to.call */\n      and\n        /* \"kipu-bank/contracts/KipuBank.sol\":8790:8796  amount */\n      dup3\n        /* \"kipu-bank/contracts/KipuBank.sol\":8775:8801  to.call{value: amount}(\"\") */\n      mload(0x40)\n      0x00\n      mload(0x40)\n      dup1\n      dup4\n      sub\n      dup2\n      dup6\n      dup8\n      gas\n      call\n      swap3\n      pop\n      pop\n      pop\n      returndatasize\n      dup1\n      0x00\n      dup2\n      eq\n      tag_102\n      jumpi\n      mload(0x40)\n      swap2\n      pop\n      and(add(returndatasize, 0x3f), not(0x1f))\n      dup3\n      add\n      0x40\n      mstore\n      returndatasize\n      dup3\n      mstore\n      returndatasize\n      0x00\n      0x20\n      dup5\n      add\n      returndatacopy\n      jump(tag_101)\n    tag_102:\n      0x60\n      swap2\n      pop\n    tag_101:\n      pop\n        /* \"kipu-bank/contracts/KipuBank.sol\":8761:8801  (bool ok, ) = to.call{value: amount}(\"\") */\n      pop\n      swap1\n      pop\n        /* \"kipu-bank/contracts/KipuBank.sol\":8817:8819  ok */\n      dup1\n        /* \"kipu-bank/contracts/KipuBank.sol\":8812:8844  if (!ok) revert TransferFailed() */\n      tag_103\n      jumpi\n        /* \"kipu-bank/contracts/KipuBank.sol\":8828:8844  TransferFailed() */\n      mload(0x40)\n      shl(0xe3, 0x12171d83)\n      dup2\n      mstore\n      0x04\n      add\n      mload(0x40)\n      dup1\n      swap2\n      sub\n      swap1\n      revert\n        /* \"kipu-bank/contracts/KipuBank.sol\":8812:8844  if (!ok) revert TransferFailed() */\n    tag_103:\n        /* \"kipu-bank/contracts/KipuBank.sol\":8750:8852  {... */\n      pop\n        /* \"kipu-bank/contracts/KipuBank.sol\":8677:8852  function _safeTransferNative(address payable to, uint256 amount) private {... */\n      pop\n      pop\n      jump\t// out\n        /* \"#utility.yul\":14:153   */\n    tag_104:\n      sub(shl(0xa0, 0x01), 0x01)\n        /* \"#utility.yul\":97:128   */\n      dup2\n      and\n        /* \"#utility.yul\":87:129   */\n      dup2\n      eq\n        /* \"#utility.yul\":77:147   */\n      tag_108\n      jumpi\n        /* \"#utility.yul\":143:144   */\n      0x00\n        /* \"#utility.yul\":140:141   */\n      0x00\n        /* \"#utility.yul\":133:145   */\n      revert\n        /* \"#utility.yul\":77:147   */\n    tag_108:\n        /* \"#utility.yul\":14:153   */\n      pop\n      jump\t// out\n        /* \"#utility.yul\":158:489   */\n    tag_22:\n        /* \"#utility.yul\":234:240   */\n      0x00\n        /* \"#utility.yul\":242:248   */\n      0x00\n        /* \"#utility.yul\":295:297   */\n      0x40\n        /* \"#utility.yul\":283:292   */\n      dup4\n        /* \"#utility.yul\":274:281   */\n      dup6\n        /* \"#utility.yul\":270:293   */\n      sub\n        /* \"#utility.yul\":266:298   */\n      slt\n        /* \"#utility.yul\":263:315   */\n      iszero\n      tag_110\n      jumpi\n        /* \"#utility.yul\":311:312   */\n      0x00\n        /* \"#utility.yul\":308:309   */\n      0x00\n        /* \"#utility.yul\":301:313   */\n      revert\n        /* \"#utility.yul\":263:315   */\n    tag_110:\n        /* \"#utility.yul\":347:356   */\n      dup3\n        /* \"#utility.yul\":334:357   */\n      calldataload\n        /* \"#utility.yul\":324:357   */\n      swap2\n      pop\n        /* \"#utility.yul\":407:409   */\n      0x20\n        /* \"#utility.yul\":396:405   */\n      dup4\n        /* \"#utility.yul\":392:410   */\n      add\n        /* \"#utility.yul\":379:411   */\n      calldataload\n        /* \"#utility.yul\":420:459   */\n      tag_111\n        /* \"#utility.yul\":453:458   */\n      dup2\n        /* \"#utility.yul\":420:459   */\n      tag_104\n      jump\t// in\n    tag_111:\n        /* \"#utility.yul\":478:483   */\n      dup1\n        /* \"#utility.yul\":468:483   */\n      swap2\n      pop\n      pop\n        /* \"#utility.yul\":158:489   */\n      swap3\n      pop\n      swap3\n      swap1\n      pop\n      jump\t// out\n        /* \"#utility.yul\":676:931   */\n    tag_32:\n        /* \"#utility.yul\":735:741   */\n      0x00\n        /* \"#utility.yul\":788:790   */\n      0x20\n        /* \"#utility.yul\":776:785   */\n      dup3\n        /* \"#utility.yul\":767:774   */\n      dup5\n        /* \"#utility.yul\":763:786   */\n      sub\n        /* \"#utility.yul\":759:791   */\n      slt\n        /* \"#utility.yul\":756:808   */\n      iszero\n      tag_114\n      jumpi\n        /* \"#utility.yul\":804:805   */\n      0x00\n        /* \"#utility.yul\":801:802   */\n      0x00\n        /* \"#utility.yul\":794:806   */\n      revert\n        /* \"#utility.yul\":756:808   */\n    tag_114:\n        /* \"#utility.yul\":843:852   */\n      dup2\n        /* \"#utility.yul\":830:853   */\n      calldataload\n        /* \"#utility.yul\":862:901   */\n      tag_115\n        /* \"#utility.yul\":895:900   */\n      dup2\n        /* \"#utility.yul\":862:901   */\n      tag_104\n      jump\t// in\n    tag_115:\n        /* \"#utility.yul\":920:925   */\n      swap4\n        /* \"#utility.yul\":676:931   */\n      swap3\n      pop\n      pop\n      pop\n      jump\t// out\n        /* \"#utility.yul\":1862:1989   */\n    tag_105:\n        /* \"#utility.yul\":1923:1933   */\n      0x4e487b71\n        /* \"#utility.yul\":1918:1921   */\n      0xe0\n        /* \"#utility.yul\":1914:1934   */\n      shl\n        /* \"#utility.yul\":1911:1912   */\n      0x00\n        /* \"#utility.yul\":1904:1935   */\n      mstore\n        /* \"#utility.yul\":1954:1958   */\n      0x11\n        /* \"#utility.yul\":1951:1952   */\n      0x04\n        /* \"#utility.yul\":1944:1959   */\n      mstore\n        /* \"#utility.yul\":1978:1982   */\n      0x24\n        /* \"#utility.yul\":1975:1976   */\n      0x00\n        /* \"#utility.yul\":1968:1983   */\n      revert\n        /* \"#utility.yul\":1994:2122   */\n    tag_80:\n        /* \"#utility.yul\":2061:2070   */\n      dup2\n      dup2\n      sub\n        /* \"#utility.yul\":2082:2093   */\n      dup2\n      dup2\n      gt\n        /* \"#utility.yul\":2079:2116   */\n      iszero\n      tag_122\n      jumpi\n        /* \"#utility.yul\":2096:2114   */\n      tag_122\n      tag_105\n      jump\t// in\n    tag_122:\n        /* \"#utility.yul\":1994:2122   */\n      swap3\n      swap2\n      pop\n      pop\n      jump\t// out\n        /* \"#utility.yul\":2127:2252   */\n    tag_91:\n        /* \"#utility.yul\":2192:2201   */\n      dup1\n      dup3\n      add\n        /* \"#utility.yul\":2213:2223   */\n      dup1\n      dup3\n      gt\n        /* \"#utility.yul\":2210:2246   */\n      iszero\n      tag_122\n      jumpi\n        /* \"#utility.yul\":2226:2244   */\n      tag_122\n      tag_105\n      jump\t// in\n\n    auxdata: 0xa2646970667358221220fb17634a8fcb6c5ff6e8c2f416b2ff2585fe1cad41aa1b47d5ce7cc6f746c51764736f6c634300081e0033\n}\n",
				"bytecode": {
					"linkReferences": {},
					"object": "60c060405234801561000f575f5ffd5b5060405161084d38038061084d83398101604081905261002e91610069565b811580610039575080155b1561005757604051631f2a200560e01b815260040160405180910390fd5b60809190915260a0525f60065561008b565b5f5f6040838503121561007a575f5ffd5b505080516020909101519092909150565b60805160a0516107776100d65f395f8181610262015281816102c501528181610520015261055501525f81816101c60152818161028801528181610359015261039501526107775ff3fe60806040526004361061009e575f3560e01c8063760ee4c611610063578063760ee4c6146101b55780638f840ddd146101e8578063bc62c3cb146101fc578063d0e30db014610231578063d80528ae14610239578063ecbea24d146102b4576100bc565b8062f714ce146100d55780632dfdf0b5146100f65780635edf83c51461011e57806370a082311461016c57806371706cbe146101a0576100bc565b366100bc5760405163b99d01c360e01b815260040160405180910390fd5b60405163b99d01c360e01b815260040160405180910390fd5b3480156100e0575f5ffd5b506100f46100ef3660046106b1565b6102e7565b005b348015610101575f5ffd5b5061010b60015481565b6040519081526020015b60405180910390f35b348015610129575f5ffd5b506101536101383660046106df565b60046020525f908152604090205467ffffffffffffffff1681565b60405167ffffffffffffffff9091168152602001610115565b348015610177575f5ffd5b5061010b6101863660046106df565b6001600160a01b03165f9081526003602052604090205490565b3480156101ab575f5ffd5b5061010b60025481565b3480156101c0575f5ffd5b5061010b7f000000000000000000000000000000000000000000000000000000000000000081565b3480156101f3575f5ffd5b5061010b5f5481565b348015610207575f5ffd5b506101536102163660046106df565b60056020525f908152604090205467ffffffffffffffff1681565b6100f46104c4565b348015610244575f5ffd5b505f54600154600254604080519384526020840192909252908201527f000000000000000000000000000000000000000000000000000000000000000060608201527f0000000000000000000000000000000000000000000000000000000000000000608082015260a001610115565b3480156102bf575f5ffd5b5061010b7f000000000000000000000000000000000000000000000000000000000000000081565b60065460010361030a576040516312171d8360e31b815260040160405180910390fd5b60016006555f82900361033057604051631f2a200560e01b815260040160405180910390fd5b6001600160a01b03811661035757604051634e46966960e11b815260040160405180910390fd5b7f00000000000000000000000000000000000000000000000000000000000000008211156103c657604051633ddd9ffd60e21b8152600481018390527f000000000000000000000000000000000000000000000000000000000000000060248201526044015b60405180910390fd5b335f90815260036020526040902054808311156104005760405163cf47918160e01b815260048101849052602481018290526044016103bd565b61040a8382610715565b335f908152600360205260408120919091558054849190819061042e908490610715565b9091555050600280546001908101909155335f908152600560205260409020805467ffffffffffffffff19811667ffffffffffffffff9182169093011691909117905561047b8284610625565b6040518381526001600160a01b0383169033907f2717ead6b9200dd235aad468c9809ea400fe33ac69b5bfaa6d3e90fc922b63989060200160405180910390a350505f60065550565b6006546001036104e7576040516312171d8360e31b815260040160405180910390fd5b6001600655345f81900361050e57604051631f2a200560e01b815260040160405180910390fd5b5f815f5461051c919061072e565b90507f00000000000000000000000000000000000000000000000000000000000000008111156105885760405163f480e28560e01b81527f00000000000000000000000000000000000000000000000000000000000000006004820152602481018290526044016103bd565b335f90815260036020526040812080548492906105a690849061072e565b90915550505f81815560018054810181553380835260046020908152604093849020805467ffffffffffffffff19811667ffffffffffffffff918216909501169390931790925591518481527fe1fffcc4923d04b559f4d29a8bfc6cda04eb5b0d3c460751c2402c5c5cc9109c910160405180910390a250505f600655565b5f826001600160a01b0316826040515f6040518083038185875af1925050503d805f811461066e576040519150601f19603f3d011682016040523d82523d5f602084013e610673565b606091505b5050905080610695576040516312171d8360e31b815260040160405180910390fd5b505050565b6001600160a01b03811681146106ae575f5ffd5b50565b5f5f604083850312156106c2575f5ffd5b8235915060208301356106d48161069a565b809150509250929050565b5f602082840312156106ef575f5ffd5b81356106fa8161069a565b9392505050565b634e487b7160e01b5f52601160045260245ffd5b8181038181111561072857610728610701565b92915050565b808201808211156107285761072861070156fea2646970667358221220fb17634a8fcb6c5ff6e8c2f416b2ff2585fe1cad41aa1b47d5ce7cc6f746c51764736f6c634300081e0033",
					"opcodes": "PUSH1 0xC0 PUSH1 0x40 MSTORE CALLVALUE DUP1 ISZERO PUSH2 0xF JUMPI PUSH0 PUSH0 REVERT JUMPDEST POP PUSH1 0x40 MLOAD PUSH2 0x84D CODESIZE SUB DUP1 PUSH2 0x84D DUP4 CODECOPY DUP2 ADD PUSH1 0x40 DUP2 SWAP1 MSTORE PUSH2 0x2E SWAP2 PUSH2 0x69 JUMP JUMPDEST DUP2 ISZERO DUP1 PUSH2 0x39 JUMPI POP DUP1 ISZERO JUMPDEST ISZERO PUSH2 0x57 JUMPI PUSH1 0x40 MLOAD PUSH4 0x1F2A2005 PUSH1 0xE0 SHL DUP2 MSTORE PUSH1 0x4 ADD PUSH1 0x40 MLOAD DUP1 SWAP2 SUB SWAP1 REVERT JUMPDEST PUSH1 0x80 SWAP2 SWAP1 SWAP2 MSTORE PUSH1 0xA0 MSTORE PUSH0 PUSH1 0x6 SSTORE PUSH2 0x8B JUMP JUMPDEST PUSH0 PUSH0 PUSH1 0x40 DUP4 DUP6 SUB SLT ISZERO PUSH2 0x7A JUMPI PUSH0 PUSH0 REVERT JUMPDEST POP POP DUP1 MLOAD PUSH1 0x20 SWAP1 SWAP2 ADD MLOAD SWAP1 SWAP3 SWAP1 SWAP2 POP JUMP JUMPDEST PUSH1 0x80 MLOAD PUSH1 0xA0 MLOAD PUSH2 0x777 PUSH2 0xD6 PUSH0 CODECOPY PUSH0 DUP2 DUP2 PUSH2 0x262 ADD MSTORE DUP2 DUP2 PUSH2 0x2C5 ADD MSTORE DUP2 DUP2 PUSH2 0x520 ADD MSTORE PUSH2 0x555 ADD MSTORE PUSH0 DUP2 DUP2 PUSH2 0x1C6 ADD MSTORE DUP2 DUP2 PUSH2 0x288 ADD MSTORE DUP2 DUP2 PUSH2 0x359 ADD MSTORE PUSH2 0x395 ADD MSTORE PUSH2 0x777 PUSH0 RETURN INVALID PUSH1 0x80 PUSH1 0x40 MSTORE PUSH1 0x4 CALLDATASIZE LT PUSH2 0x9E JUMPI PUSH0 CALLDATALOAD PUSH1 0xE0 SHR DUP1 PUSH4 0x760EE4C6 GT PUSH2 0x63 JUMPI DUP1 PUSH4 0x760EE4C6 EQ PUSH2 0x1B5 JUMPI DUP1 PUSH4 0x8F840DDD EQ PUSH2 0x1E8 JUMPI DUP1 PUSH4 0xBC62C3CB EQ PUSH2 0x1FC JUMPI DUP1 PUSH4 0xD0E30DB0 EQ PUSH2 0x231 JUMPI DUP1 PUSH4 0xD80528AE EQ PUSH2 0x239 JUMPI DUP1 PUSH4 0xECBEA24D EQ PUSH2 0x2B4 JUMPI PUSH2 0xBC JUMP JUMPDEST DUP1 PUSH3 0xF714CE EQ PUSH2 0xD5 JUMPI DUP1 PUSH4 0x2DFDF0B5 EQ PUSH2 0xF6 JUMPI DUP1 PUSH4 0x5EDF83C5 EQ PUSH2 0x11E JUMPI DUP1 PUSH4 0x70A08231 EQ PUSH2 0x16C JUMPI DUP1 PUSH4 0x71706CBE EQ PUSH2 0x1A0 JUMPI PUSH2 0xBC JUMP JUMPDEST CALLDATASIZE PUSH2 0xBC JUMPI PUSH1 0x40 MLOAD PUSH4 0xB99D01C3 PUSH1 0xE0 SHL DUP2 MSTORE PUSH1 0x4 ADD PUSH1 0x40 MLOAD DUP1 SWAP2 SUB SWAP1 REVERT JUMPDEST PUSH1 0x40 MLOAD PUSH4 0xB99D01C3 PUSH1 0xE0 SHL DUP2 MSTORE PUSH1 0x4 ADD PUSH1 0x40 MLOAD DUP1 SWAP2 SUB SWAP1 REVERT JUMPDEST CALLVALUE DUP1 ISZERO PUSH2 0xE0 JUMPI PUSH0 PUSH0 REVERT JUMPDEST POP PUSH2 0xF4 PUSH2 0xEF CALLDATASIZE PUSH1 0x4 PUSH2 0x6B1 JUMP JUMPDEST PUSH2 0x2E7 JUMP JUMPDEST STOP JUMPDEST CALLVALUE DUP1 ISZERO PUSH2 0x101 JUMPI PUSH0 PUSH0 REVERT JUMPDEST POP PUSH2 0x10B PUSH1 0x1 SLOAD DUP2 JUMP JUMPDEST PUSH1 0x40 MLOAD SWAP1 DUP2 MSTORE PUSH1 0x20 ADD JUMPDEST PUSH1 0x40 MLOAD DUP1 SWAP2 SUB SWAP1 RETURN JUMPDEST CALLVALUE DUP1 ISZERO PUSH2 0x129 JUMPI PUSH0 PUSH0 REVERT JUMPDEST POP PUSH2 0x153 PUSH2 0x138 CALLDATASIZE PUSH1 0x4 PUSH2 0x6DF JUMP JUMPDEST PUSH1 0x4 PUSH1 0x20 MSTORE PUSH0 SWAP1 DUP2 MSTORE PUSH1 0x40 SWAP1 KECCAK256 SLOAD PUSH8 0xFFFFFFFFFFFFFFFF AND DUP2 JUMP JUMPDEST PUSH1 0x40 MLOAD PUSH8 0xFFFFFFFFFFFFFFFF SWAP1 SWAP2 AND DUP2 MSTORE PUSH1 0x20 ADD PUSH2 0x115 JUMP JUMPDEST CALLVALUE DUP1 ISZERO PUSH2 0x177 JUMPI PUSH0 PUSH0 REVERT JUMPDEST POP PUSH2 0x10B PUSH2 0x186 CALLDATASIZE PUSH1 0x4 PUSH2 0x6DF JUMP JUMPDEST PUSH1 0x1 PUSH1 0x1 PUSH1 0xA0 SHL SUB AND PUSH0 SWAP1 DUP2 MSTORE PUSH1 0x3 PUSH1 0x20 MSTORE PUSH1 0x40 SWAP1 KECCAK256 SLOAD SWAP1 JUMP JUMPDEST CALLVALUE DUP1 ISZERO PUSH2 0x1AB JUMPI PUSH0 PUSH0 REVERT JUMPDEST POP PUSH2 0x10B PUSH1 0x2 SLOAD DUP2 JUMP JUMPDEST CALLVALUE DUP1 ISZERO PUSH2 0x1C0 JUMPI PUSH0 PUSH0 REVERT JUMPDEST POP PUSH2 0x10B PUSH32 0x0 DUP2 JUMP JUMPDEST CALLVALUE DUP1 ISZERO PUSH2 0x1F3 JUMPI PUSH0 PUSH0 REVERT JUMPDEST POP PUSH2 0x10B PUSH0 SLOAD DUP2 JUMP JUMPDEST CALLVALUE DUP1 ISZERO PUSH2 0x207 JUMPI PUSH0 PUSH0 REVERT JUMPDEST POP PUSH2 0x153 PUSH2 0x216 CALLDATASIZE PUSH1 0x4 PUSH2 0x6DF JUMP JUMPDEST PUSH1 0x5 PUSH1 0x20 MSTORE PUSH0 SWAP1 DUP2 MSTORE PUSH1 0x40 SWAP1 KECCAK256 SLOAD PUSH8 0xFFFFFFFFFFFFFFFF AND DUP2 JUMP JUMPDEST PUSH2 0xF4 PUSH2 0x4C4 JUMP JUMPDEST CALLVALUE DUP1 ISZERO PUSH2 0x244 JUMPI PUSH0 PUSH0 REVERT JUMPDEST POP PUSH0 SLOAD PUSH1 0x1 SLOAD PUSH1 0x2 SLOAD PUSH1 0x40 DUP1 MLOAD SWAP4 DUP5 MSTORE PUSH1 0x20 DUP5 ADD SWAP3 SWAP1 SWAP3 MSTORE SWAP1 DUP3 ADD MSTORE PUSH32 0x0 PUSH1 0x60 DUP3 ADD MSTORE PUSH32 0x0 PUSH1 0x80 DUP3 ADD MSTORE PUSH1 0xA0 ADD PUSH2 0x115 JUMP JUMPDEST CALLVALUE DUP1 ISZERO PUSH2 0x2BF JUMPI PUSH0 PUSH0 REVERT JUMPDEST POP PUSH2 0x10B PUSH32 0x0 DUP2 JUMP JUMPDEST PUSH1 0x6 SLOAD PUSH1 0x1 SUB PUSH2 0x30A JUMPI PUSH1 0x40 MLOAD PUSH4 0x12171D83 PUSH1 0xE3 SHL DUP2 MSTORE PUSH1 0x4 ADD PUSH1 0x40 MLOAD DUP1 SWAP2 SUB SWAP1 REVERT JUMPDEST PUSH1 0x1 PUSH1 0x6 SSTORE PUSH0 DUP3 SWAP1 SUB PUSH2 0x330 JUMPI PUSH1 0x40 MLOAD PUSH4 0x1F2A2005 PUSH1 0xE0 SHL DUP2 MSTORE PUSH1 0x4 ADD PUSH1 0x40 MLOAD DUP1 SWAP2 SUB SWAP1 REVERT JUMPDEST PUSH1 0x1 PUSH1 0x1 PUSH1 0xA0 SHL SUB DUP2 AND PUSH2 0x357 JUMPI PUSH1 0x40 MLOAD PUSH4 0x4E469669 PUSH1 0xE1 SHL DUP2 MSTORE PUSH1 0x4 ADD PUSH1 0x40 MLOAD DUP1 SWAP2 SUB SWAP1 REVERT JUMPDEST PUSH32 0x0 DUP3 GT ISZERO PUSH2 0x3C6 JUMPI PUSH1 0x40 MLOAD PUSH4 0x3DDD9FFD PUSH1 0xE2 SHL DUP2 MSTORE PUSH1 0x4 DUP2 ADD DUP4 SWAP1 MSTORE PUSH32 0x0 PUSH1 0x24 DUP3 ADD MSTORE PUSH1 0x44 ADD JUMPDEST PUSH1 0x40 MLOAD DUP1 SWAP2 SUB SWAP1 REVERT JUMPDEST CALLER PUSH0 SWAP1 DUP2 MSTORE PUSH1 0x3 PUSH1 0x20 MSTORE PUSH1 0x40 SWAP1 KECCAK256 SLOAD DUP1 DUP4 GT ISZERO PUSH2 0x400 JUMPI PUSH1 0x40 MLOAD PUSH4 0xCF479181 PUSH1 0xE0 SHL DUP2 MSTORE PUSH1 0x4 DUP2 ADD DUP5 SWAP1 MSTORE PUSH1 0x24 DUP2 ADD DUP3 SWAP1 MSTORE PUSH1 0x44 ADD PUSH2 0x3BD JUMP JUMPDEST PUSH2 0x40A DUP4 DUP3 PUSH2 0x715 JUMP JUMPDEST CALLER PUSH0 SWAP1 DUP2 MSTORE PUSH1 0x3 PUSH1 0x20 MSTORE PUSH1 0x40 DUP2 KECCAK256 SWAP2 SWAP1 SWAP2 SSTORE DUP1 SLOAD DUP5 SWAP2 SWAP1 DUP2 SWAP1 PUSH2 0x42E SWAP1 DUP5 SWAP1 PUSH2 0x715 JUMP JUMPDEST SWAP1 SWAP2 SSTORE POP POP PUSH1 0x2 DUP1 SLOAD PUSH1 0x1 SWAP1 DUP2 ADD SWAP1 SWAP2 SSTORE CALLER PUSH0 SWAP1 DUP2 MSTORE PUSH1 0x5 PUSH1 0x20 MSTORE PUSH1 0x40 SWAP1 KECCAK256 DUP1 SLOAD PUSH8 0xFFFFFFFFFFFFFFFF NOT DUP2 AND PUSH8 0xFFFFFFFFFFFFFFFF SWAP2 DUP3 AND SWAP1 SWAP4 ADD AND SWAP2 SWAP1 SWAP2 OR SWAP1 SSTORE PUSH2 0x47B DUP3 DUP5 PUSH2 0x625 JUMP JUMPDEST PUSH1 0x40 MLOAD DUP4 DUP2 MSTORE PUSH1 0x1 PUSH1 0x1 PUSH1 0xA0 SHL SUB DUP4 AND SWAP1 CALLER SWAP1 PUSH32 0x2717EAD6B9200DD235AAD468C9809EA400FE33AC69B5BFAA6D3E90FC922B6398 SWAP1 PUSH1 0x20 ADD PUSH1 0x40 MLOAD DUP1 SWAP2 SUB SWAP1 LOG3 POP POP PUSH0 PUSH1 0x6 SSTORE POP JUMP JUMPDEST PUSH1 0x6 SLOAD PUSH1 0x1 SUB PUSH2 0x4E7 JUMPI PUSH1 0x40 MLOAD PUSH4 0x12171D83 PUSH1 0xE3 SHL DUP2 MSTORE PUSH1 0x4 ADD PUSH1 0x40 MLOAD DUP1 SWAP2 SUB SWAP1 REVERT JUMPDEST PUSH1 0x1 PUSH1 0x6 SSTORE CALLVALUE PUSH0 DUP2 SWAP1 SUB PUSH2 0x50E JUMPI PUSH1 0x40 MLOAD PUSH4 0x1F2A2005 PUSH1 0xE0 SHL DUP2 MSTORE PUSH1 0x4 ADD PUSH1 0x40 MLOAD DUP1 SWAP2 SUB SWAP1 REVERT JUMPDEST PUSH0 DUP2 PUSH0 SLOAD PUSH2 0x51C SWAP2 SWAP1 PUSH2 0x72E JUMP JUMPDEST SWAP1 POP PUSH32 0x0 DUP2 GT ISZERO PUSH2 0x588 JUMPI PUSH1 0x40 MLOAD PUSH4 0xF480E285 PUSH1 0xE0 SHL DUP2 MSTORE PUSH32 0x0 PUSH1 0x4 DUP3 ADD MSTORE PUSH1 0x24 DUP2 ADD DUP3 SWAP1 MSTORE PUSH1 0x44 ADD PUSH2 0x3BD JUMP JUMPDEST CALLER PUSH0 SWAP1 DUP2 MSTORE PUSH1 0x3 PUSH1 0x20 MSTORE PUSH1 0x40 DUP2 KECCAK256 DUP1 SLOAD DUP5 SWAP3 SWAP1 PUSH2 0x5A6 SWAP1 DUP5 SWAP1 PUSH2 0x72E JUMP JUMPDEST SWAP1 SWAP2 SSTORE POP POP PUSH0 DUP2 DUP2 SSTORE PUSH1 0x1 DUP1 SLOAD DUP2 ADD DUP2 SSTORE CALLER DUP1 DUP4 MSTORE PUSH1 0x4 PUSH1 0x20 SWAP1 DUP2 MSTORE PUSH1 0x40 SWAP4 DUP5 SWAP1 KECCAK256 DUP1 SLOAD PUSH8 0xFFFFFFFFFFFFFFFF NOT DUP2 AND PUSH8 0xFFFFFFFFFFFFFFFF SWAP2 DUP3 AND SWAP1 SWAP6 ADD AND SWAP4 SWAP1 SWAP4 OR SWAP1 SWAP3 SSTORE SWAP2 MLOAD DUP5 DUP2 MSTORE PUSH32 0xE1FFFCC4923D04B559F4D29A8BFC6CDA04EB5B0D3C460751C2402C5C5CC9109C SWAP2 ADD PUSH1 0x40 MLOAD DUP1 SWAP2 SUB SWAP1 LOG2 POP POP PUSH0 PUSH1 0x6 SSTORE JUMP JUMPDEST PUSH0 DUP3 PUSH1 0x1 PUSH1 0x1 PUSH1 0xA0 SHL SUB AND DUP3 PUSH1 0x40 MLOAD PUSH0 PUSH1 0x40 MLOAD DUP1 DUP4 SUB DUP2 DUP6 DUP8 GAS CALL SWAP3 POP POP POP RETURNDATASIZE DUP1 PUSH0 DUP2 EQ PUSH2 0x66E JUMPI PUSH1 0x40 MLOAD SWAP2 POP PUSH1 0x1F NOT PUSH1 0x3F RETURNDATASIZE ADD AND DUP3 ADD PUSH1 0x40 MSTORE RETURNDATASIZE DUP3 MSTORE RETURNDATASIZE PUSH0 PUSH1 0x20 DUP5 ADD RETURNDATACOPY PUSH2 0x673 JUMP JUMPDEST PUSH1 0x60 SWAP2 POP JUMPDEST POP POP SWAP1 POP DUP1 PUSH2 0x695 JUMPI PUSH1 0x40 MLOAD PUSH4 0x12171D83 PUSH1 0xE3 SHL DUP2 MSTORE PUSH1 0x4 ADD PUSH1 0x40 MLOAD DUP1 SWAP2 SUB SWAP1 REVERT JUMPDEST POP POP POP JUMP JUMPDEST PUSH1 0x1 PUSH1 0x1 PUSH1 0xA0 SHL SUB DUP2 AND DUP2 EQ PUSH2 0x6AE JUMPI PUSH0 PUSH0 REVERT JUMPDEST POP JUMP JUMPDEST PUSH0 PUSH0 PUSH1 0x40 DUP4 DUP6 SUB SLT ISZERO PUSH2 0x6C2 JUMPI PUSH0 PUSH0 REVERT JUMPDEST DUP3 CALLDATALOAD SWAP2 POP PUSH1 0x20 DUP4 ADD CALLDATALOAD PUSH2 0x6D4 DUP2 PUSH2 0x69A JUMP JUMPDEST DUP1 SWAP2 POP POP SWAP3 POP SWAP3 SWAP1 POP JUMP JUMPDEST PUSH0 PUSH1 0x20 DUP3 DUP5 SUB SLT ISZERO PUSH2 0x6EF JUMPI PUSH0 PUSH0 REVERT JUMPDEST DUP2 CALLDATALOAD PUSH2 0x6FA DUP2 PUSH2 0x69A JUMP JUMPDEST SWAP4 SWAP3 POP POP POP JUMP JUMPDEST PUSH4 0x4E487B71 PUSH1 0xE0 SHL PUSH0 MSTORE PUSH1 0x11 PUSH1 0x4 MSTORE PUSH1 0x24 PUSH0 REVERT JUMPDEST DUP2 DUP2 SUB DUP2 DUP2 GT ISZERO PUSH2 0x728 JUMPI PUSH2 0x728 PUSH2 0x701 JUMP JUMPDEST SWAP3 SWAP2 POP POP JUMP JUMPDEST DUP1 DUP3 ADD DUP1 DUP3 GT ISZERO PUSH2 0x728 JUMPI PUSH2 0x728 PUSH2 0x701 JUMP INVALID LOG2 PUSH5 0x6970667358 0x22 SLT KECCAK256 EXTSTATICCALL OR PUSH4 0x4A8FCB6C PUSH0 0xF6 0xE8 0xC2 DELEGATECALL AND 0xB2 SELFDESTRUCT 0x25 DUP6 INVALID SHR 0xAD COINBASE 0xAA SHL SELFBALANCE 0xD5 0xCE PUSH29 0xC6F746C51764736F6C634300081E003300000000000000000000000000 "
				},
				"gasEstimates": {
					"creation": {
						"codeDepositCost": "382200",
						"executionCost": "infinite",
						"totalCost": "infinite"
					},
					"external": {
						"": "246",
						"balanceOf(address)": "2584",
						"bankCap()": "infinite",
						"deposit()": "infinite",
						"depositCount()": "2306",
						"depositsBy(address)": "2570",
						"stats()": "infinite",
						"totalReserves()": "2304",
						"withdraw(uint256,address)": "infinite",
						"withdrawThreshold()": "infinite",
						"withdrawalCount()": "2372",
						"withdrawalsBy(address)": "2569"
					},
					"internal": {
						"_safeTransferNative(address payable,uint256)": "infinite"
					}
				},
				"methodIdentifiers": {
					"balanceOf(address)": "70a08231",
					"bankCap()": "ecbea24d",
					"deposit()": "d0e30db0",
					"depositCount()": "2dfdf0b5",
					"depositsBy(address)": "5edf83c5",
					"stats()": "d80528ae",
					"totalReserves()": "8f840ddd",
					"withdraw(uint256,address)": "00f714ce",
					"withdrawThreshold()": "760ee4c6",
					"withdrawalCount()": "71706cbe",
					"withdrawalsBy(address)": "bc62c3cb"
				}
			},
			"storageLayout": {
				"storage": [
					{
						"astId": 44,
						"contract": "kipu-bank/contracts/KipuBank.sol:KipuBank",
						"label": "totalReserves",
						"offset": 0,
						"slot": "0",
						"type": "t_uint256"
					},
					{
						"astId": 47,
						"contract": "kipu-bank/contracts/KipuBank.sol:KipuBank",
						"label": "depositCount",
						"offset": 0,
						"slot": "1",
						"type": "t_uint256"
					},
					{
						"astId": 50,
						"contract": "kipu-bank/contracts/KipuBank.sol:KipuBank",
						"label": "withdrawalCount",
						"offset": 0,
						"slot": "2",
						"type": "t_uint256"
					},
					{
						"astId": 55,
						"contract": "kipu-bank/contracts/KipuBank.sol:KipuBank",
						"label": "vault",
						"offset": 0,
						"slot": "3",
						"type": "t_mapping(t_address,t_uint256)"
					},
					{
						"astId": 60,
						"contract": "kipu-bank/contracts/KipuBank.sol:KipuBank",
						"label": "depositsBy",
						"offset": 0,
						"slot": "4",
						"type": "t_mapping(t_address,t_uint64)"
					},
					{
						"astId": 65,
						"contract": "kipu-bank/contracts/KipuBank.sol:KipuBank",
						"label": "withdrawalsBy",
						"offset": 0,
						"slot": "5",
						"type": "t_mapping(t_address,t_uint64)"
					},
					{
						"astId": 68,
						"contract": "kipu-bank/contracts/KipuBank.sol:KipuBank",
						"label": "_locked",
						"offset": 0,
						"slot": "6",
						"type": "t_uint256"
					}
				],
				"types": {
					"t_address": {
						"encoding": "inplace",
						"label": "address",
						"numberOfBytes": "20"
					},
					"t_mapping(t_address,t_uint256)": {
						"encoding": "mapping",
						"key": "t_address",
						"label": "mapping(address => uint256)",
						"numberOfBytes": "32",
						"value": "t_uint256"
					},
					"t_mapping(t_address,t_uint64)": {
						"encoding": "mapping",
						"key": "t_address",
						"label": "mapping(address => uint64)",
						"numberOfBytes": "32",
						"value": "t_uint64"
					},
					"t_uint256": {
						"encoding": "inplace",
						"label": "uint256",
						"numberOfBytes": "32"
					},
					"t_uint64": {
						"encoding": "inplace",
						"label": "uint64",
						"numberOfBytes": "8"
					}
				}
			},
			"userdoc": {
				"errors": {
					"CapExceeded(uint256,uint256)": [
						{
							"notice": "Se revierte si la operación supera el tope global de depósitos del banco."
						}
					],
					"DirectDepositDisabled()": [
						{
							"notice": "Se revierte si alguien envía ETH directo al contrato."
						}
					],
					"InsufficientBalance(uint256,uint256)": [
						{
							"notice": "Se revierte si el usuario no tiene balance suficiente."
						}
					],
					"InvalidRecipient()": [
						{
							"notice": "Se revierte si el destinatario es la dirección cero."
						}
					],
					"ThresholdExceeded(uint256,uint256)": [
						{
							"notice": "Se revierte si un retiro excede el umbral por transacción."
						}
					],
					"TransferFailed()": [
						{
							"notice": "Se revierte si una transferencia nativa falla."
						}
					],
					"ZeroAmount()": [
						{
							"notice": "Se revierte si el monto es cero."
						}
					]
				},
				"events": {
					"Deposit(address,uint256)": {
						"notice": "Empleado cuando un usuario deposita exitosamente."
					},
					"Withdrawal(address,address,uint256)": {
						"notice": "Empleado cuando un usuario retira exitosamente."
					}
				},
				"kind": "user",
				"methods": {
					"balanceOf(address)": {
						"notice": "Obtiene el balance de la bóveda de un usuario."
					},
					"bankCap()": {
						"notice": "Tope global del banco para la suma de todos los saldos."
					},
					"deposit()": {
						"notice": "Deposita ETH en tu bóveda personal."
					},
					"depositCount()": {
						"notice": "Cantidad de depósitos realizados (global)."
					},
					"depositsBy(address)": {
						"notice": "Cantidad de depósitos por usuario (métrica opcional útil)."
					},
					"stats()": {
						"notice": "Devuelve métricas agregadas útiles para UIs."
					},
					"totalReserves()": {
						"notice": "Suma de todos los saldos en todas las bóvedas."
					},
					"withdraw(uint256,address)": {
						"notice": "Retira hasta `withdrawThreshold` (o menos) hacia `to`."
					},
					"withdrawThreshold()": {
						"notice": "Umbral máximo por retiro (fijo por transacción)."
					},
					"withdrawalCount()": {
						"notice": "Cantidad de retiros realizados (global)."
					},
					"withdrawalsBy(address)": {
						"notice": "Cantidad de retiros por usuario (métrica opcional útil)."
					}
				},
				"notice": "Permite a cada usuario depositar ETH en su bóveda y retirarlo con un umbral fijo por transacción.",
				"version": 1
			}
		}
	}
}