{
	"Modulo02/Proyecto03/Contrato_Donations.sol": {
		"Donations": {
			"abi": [
				{
					"inputs": [
						{
							"internalType": "address",
							"name": "_beneficiario",
							"type": "address"
						}
					],
					"stateMutability": "nonpayable",
					"type": "constructor"
				},
				{
					"inputs": [
						{
							"internalType": "address",
							"name": "chamador",
							"type": "address"
						},
						{
							"internalType": "address",
							"name": "beneficiario",
							"type": "address"
						}
					],
					"name": "Donations_SacadorNaoPermitido",
					"type": "error"
				},
				{
					"inputs": [
						{
							"internalType": "bytes",
							"name": "erro",
							"type": "bytes"
						}
					],
					"name": "Donations_TrasacaoFalhou",
					"type": "error"
				},
				{
					"anonymous": false,
					"inputs": [
						{
							"indexed": false,
							"internalType": "address",
							"name": "doador",
							"type": "address"
						},
						{
							"indexed": false,
							"internalType": "uint256",
							"name": "valor",
							"type": "uint256"
						}
					],
					"name": "Donations_DoacaoRecebida",
					"type": "event"
				},
				{
					"anonymous": false,
					"inputs": [
						{
							"indexed": false,
							"internalType": "address",
							"name": "recebedor",
							"type": "address"
						},
						{
							"indexed": false,
							"internalType": "uint256",
							"name": "valor",
							"type": "uint256"
						}
					],
					"name": "Donations_SaqueRealizado",
					"type": "event"
				},
				{
					"stateMutability": "nonpayable",
					"type": "fallback"
				},
				{
					"inputs": [],
					"name": "doe",
					"outputs": [],
					"stateMutability": "payable",
					"type": "function"
				},
				{
					"inputs": [
						{
							"internalType": "address",
							"name": "usuario",
							"type": "address"
						}
					],
					"name": "s_doacoes",
					"outputs": [
						{
							"internalType": "uint256",
							"name": "valor",
							"type": "uint256"
						}
					],
					"stateMutability": "view",
					"type": "function"
				},
				{
					"inputs": [
						{
							"internalType": "uint256",
							"name": "_valor",
							"type": "uint256"
						}
					],
					"name": "saque",
					"outputs": [],
					"stateMutability": "nonpayable",
					"type": "function"
				},
				{
					"stateMutability": "payable",
					"type": "receive"
				}
			],
			"devdoc": {
				"author": "i3arba - 77 Innovation Labs",
				"custom:security": "Não use em produção.",
				"kind": "dev",
				"methods": {
					"doe()": {
						"details": "essa função deve somar o valor doado por cada endereço no decorrer do tempoessa função precisa emitir um evento informando a doação."
					}
				},
				"title": "Contrato Donations",
				"version": 1
			},
			"evm": {
				"assembly": "    /* \"Modulo02/Proyecto03/Contrato_Donations.sol\":226:2655  contract Donations {... */\n  mstore(0x40, 0xa0)\n    /* \"Modulo02/Proyecto03/Contrato_Donations.sol\":1284:1356  constructor(address _beneficiario){... */\n  callvalue\n  dup1\n  iszero\n  tag_1\n  jumpi\n  revert(0x00, 0x00)\ntag_1:\n  pop\n  mload(0x40)\n  sub(codesize, bytecodeSize)\n  dup1\n  bytecodeSize\n  dup4\n  codecopy\n  dup2\n  dup2\n  add\n  0x40\n  mstore\n  dup2\n  add\n  swap1\n  tag_2\n  swap2\n  swap1\n  tag_3\n  jump\t// in\ntag_2:\n    /* \"Modulo02/Proyecto03/Contrato_Donations.sol\":1339:1352  _beneficiario */\n  dup1\n    /* \"Modulo02/Proyecto03/Contrato_Donations.sol\":1322:1352  i_beneficiario = _beneficiario */\n  0xffffffffffffffffffffffffffffffffffffffff\n  and\n  0x80\n  dup2\n  0xffffffffffffffffffffffffffffffffffffffff\n  and\n  dup2\n  mstore\n  pop\n  pop\n    /* \"Modulo02/Proyecto03/Contrato_Donations.sol\":1284:1356  constructor(address _beneficiario){... */\n  pop\n    /* \"Modulo02/Proyecto03/Contrato_Donations.sol\":226:2655  contract Donations {... */\n  jump(tag_6)\n    /* \"#utility.yul\":88:205   */\ntag_8:\n    /* \"#utility.yul\":197:198   */\n  0x00\n    /* \"#utility.yul\":194:195   */\n  0x00\n    /* \"#utility.yul\":187:199   */\n  revert\n    /* \"#utility.yul\":334:460   */\ntag_10:\n    /* \"#utility.yul\":371:378   */\n  0x00\n    /* \"#utility.yul\":411:453   */\n  0xffffffffffffffffffffffffffffffffffffffff\n    /* \"#utility.yul\":404:409   */\n  dup3\n    /* \"#utility.yul\":400:454   */\n  and\n    /* \"#utility.yul\":389:454   */\n  swap1\n  pop\n    /* \"#utility.yul\":334:460   */\n  swap2\n  swap1\n  pop\n  jump\t// out\n    /* \"#utility.yul\":466:562   */\ntag_11:\n    /* \"#utility.yul\":503:510   */\n  0x00\n    /* \"#utility.yul\":532:556   */\n  tag_20\n    /* \"#utility.yul\":550:555   */\n  dup3\n    /* \"#utility.yul\":532:556   */\n  tag_10\n  jump\t// in\ntag_20:\n    /* \"#utility.yul\":521:556   */\n  swap1\n  pop\n    /* \"#utility.yul\":466:562   */\n  swap2\n  swap1\n  pop\n  jump\t// out\n    /* \"#utility.yul\":568:690   */\ntag_12:\n    /* \"#utility.yul\":641:665   */\n  tag_22\n    /* \"#utility.yul\":659:664   */\n  dup2\n    /* \"#utility.yul\":641:665   */\n  tag_11\n  jump\t// in\ntag_22:\n    /* \"#utility.yul\":634:639   */\n  dup2\n    /* \"#utility.yul\":631:666   */\n  eq\n    /* \"#utility.yul\":621:684   */\n  tag_23\n  jumpi\n    /* \"#utility.yul\":680:681   */\n  0x00\n    /* \"#utility.yul\":677:678   */\n  0x00\n    /* \"#utility.yul\":670:682   */\n  revert\n    /* \"#utility.yul\":621:684   */\ntag_23:\n    /* \"#utility.yul\":568:690   */\n  pop\n  jump\t// out\n    /* \"#utility.yul\":696:839   */\ntag_13:\n    /* \"#utility.yul\":753:758   */\n  0x00\n    /* \"#utility.yul\":784:790   */\n  dup2\n    /* \"#utility.yul\":778:791   */\n  mload\n    /* \"#utility.yul\":769:791   */\n  swap1\n  pop\n    /* \"#utility.yul\":800:833   */\n  tag_25\n    /* \"#utility.yul\":827:832   */\n  dup2\n    /* \"#utility.yul\":800:833   */\n  tag_12\n  jump\t// in\ntag_25:\n    /* \"#utility.yul\":696:839   */\n  swap3\n  swap2\n  pop\n  pop\n  jump\t// out\n    /* \"#utility.yul\":845:1196   */\ntag_3:\n    /* \"#utility.yul\":915:921   */\n  0x00\n    /* \"#utility.yul\":964:966   */\n  0x20\n    /* \"#utility.yul\":952:961   */\n  dup3\n    /* \"#utility.yul\":943:950   */\n  dup5\n    /* \"#utility.yul\":939:962   */\n  sub\n    /* \"#utility.yul\":935:967   */\n  slt\n    /* \"#utility.yul\":932:1051   */\n  iszero\n  tag_27\n  jumpi\n    /* \"#utility.yul\":970:1049   */\n  tag_28\n  tag_8\n  jump\t// in\ntag_28:\n    /* \"#utility.yul\":932:1051   */\ntag_27:\n    /* \"#utility.yul\":1090:1091   */\n  0x00\n    /* \"#utility.yul\":1115:1179   */\n  tag_29\n    /* \"#utility.yul\":1171:1178   */\n  dup5\n    /* \"#utility.yul\":1162:1168   */\n  dup3\n    /* \"#utility.yul\":1151:1160   */\n  dup6\n    /* \"#utility.yul\":1147:1169   */\n  add\n    /* \"#utility.yul\":1115:1179   */\n  tag_13\n  jump\t// in\ntag_29:\n    /* \"#utility.yul\":1105:1179   */\n  swap2\n  pop\n    /* \"#utility.yul\":1061:1189   */\n  pop\n    /* \"#utility.yul\":845:1196   */\n  swap3\n  swap2\n  pop\n  pop\n  jump\t// out\n    /* \"Modulo02/Proyecto03/Contrato_Donations.sol\":226:2655  contract Donations {... */\ntag_6:\n  mload(0x80)\n  codecopy(0x00, dataOffset(sub_0), dataSize(sub_0))\n  0x00\n  assignImmutable(\"0xceebf77a833b30520287ddd9478ff51abbdffa30aa90a8d655dba0e8a79ce0c1\")\n  return(0x00, dataSize(sub_0))\nstop\n\nsub_0: assembly {\n        /* \"Modulo02/Proyecto03/Contrato_Donations.sol\":226:2655  contract Donations {... */\n      mstore(0x40, 0x80)\n      jumpi(tag_1, lt(calldatasize, 0x04))\n      shr(0xe0, calldataload(0x00))\n      dup1\n      0x3ccdc740\n      eq\n      tag_3\n      jumpi\n      dup1\n      0xa8559d08\n      eq\n      tag_4\n      jumpi\n      dup1\n      0xc82f6b1a\n      eq\n      tag_5\n      jumpi\n      jump(tag_2)\n    tag_1:\n      jumpi(tag_2, calldatasize)\n      stop\n    tag_2:\n      callvalue\n      dup1\n      iszero\n      tag_8\n      jumpi\n      revert(0x00, 0x00)\n    tag_8:\n      stop\n        /* \"Modulo02/Proyecto03/Contrato_Donations.sol\":1678:1834  function doe() external payable {... */\n    tag_3:\n      tag_11\n      tag_12\n      jump\t// in\n    tag_11:\n      stop\n        /* \"Modulo02/Proyecto03/Contrato_Donations.sol\":2083:2313  function saque(uint256 _valor) external {... */\n    tag_4:\n      callvalue\n      dup1\n      iszero\n      tag_13\n      jumpi\n      revert(0x00, 0x00)\n    tag_13:\n      pop\n      tag_14\n      0x04\n      dup1\n      calldatasize\n      sub\n      dup2\n      add\n      swap1\n      tag_15\n      swap2\n      swap1\n      tag_16\n      jump\t// in\n    tag_15:\n      tag_17\n      jump\t// in\n    tag_14:\n      stop\n        /* \"Modulo02/Proyecto03/Contrato_Donations.sol\":504:562  mapping(address usuario => uint256 valor) public s_doacoes */\n    tag_5:\n      callvalue\n      dup1\n      iszero\n      tag_18\n      jumpi\n      revert(0x00, 0x00)\n    tag_18:\n      pop\n      tag_19\n      0x04\n      dup1\n      calldatasize\n      sub\n      dup2\n      add\n      swap1\n      tag_20\n      swap2\n      swap1\n      tag_21\n      jump\t// in\n    tag_20:\n      tag_22\n      jump\t// in\n    tag_19:\n      mload(0x40)\n      tag_23\n      swap2\n      swap1\n      tag_24\n      jump\t// in\n    tag_23:\n      mload(0x40)\n      dup1\n      swap2\n      sub\n      swap1\n      return\n        /* \"Modulo02/Proyecto03/Contrato_Donations.sol\":1678:1834  function doe() external payable {... */\n    tag_12:\n        /* \"Modulo02/Proyecto03/Contrato_Donations.sol\":1763:1772  msg.value */\n      callvalue\n        /* \"Modulo02/Proyecto03/Contrato_Donations.sol\":1738:1747  s_doacoes */\n      0x00\n        /* \"Modulo02/Proyecto03/Contrato_Donations.sol\":1738:1759  s_doacoes[msg.sender] */\n      0x00\n        /* \"Modulo02/Proyecto03/Contrato_Donations.sol\":1748:1758  msg.sender */\n      caller\n        /* \"Modulo02/Proyecto03/Contrato_Donations.sol\":1738:1759  s_doacoes[msg.sender] */\n      0xffffffffffffffffffffffffffffffffffffffff\n      and\n      0xffffffffffffffffffffffffffffffffffffffff\n      and\n      dup2\n      mstore\n      0x20\n      add\n      swap1\n      dup2\n      mstore\n      0x20\n      add\n      0x00\n      keccak256\n      0x00\n        /* \"Modulo02/Proyecto03/Contrato_Donations.sol\":1738:1772  s_doacoes[msg.sender] += msg.value */\n      dup3\n      dup3\n      sload\n      tag_26\n      swap2\n      swap1\n      tag_27\n      jump\t// in\n    tag_26:\n      swap3\n      pop\n      pop\n      dup2\n      swap1\n      sstore\n        /* \"Modulo02/Proyecto03/Contrato_Donations.sol\":1714:1723  s_doacoes */\n      0x00\n        /* \"Modulo02/Proyecto03/Contrato_Donations.sol\":1714:1735  s_doacoes[msg.sender] */\n      0x00\n        /* \"Modulo02/Proyecto03/Contrato_Donations.sol\":1724:1734  msg.sender */\n      caller\n        /* \"Modulo02/Proyecto03/Contrato_Donations.sol\":1714:1735  s_doacoes[msg.sender] */\n      0xffffffffffffffffffffffffffffffffffffffff\n      and\n      0xffffffffffffffffffffffffffffffffffffffff\n      and\n      dup2\n      mstore\n      0x20\n      add\n      swap1\n      dup2\n      mstore\n      0x20\n      add\n      0x00\n      keccak256\n        /* \"Modulo02/Proyecto03/Contrato_Donations.sol\":1714:1772  s_doacoes[msg.sender] = s_doacoes[msg.sender] += msg.value */\n      dup2\n      swap1\n      sstore\n      pop\n        /* \"Modulo02/Proyecto03/Contrato_Donations.sol\":1783:1830  Donations_DoacaoRecebida(msg.sender, msg.value) */\n      0x1fa51f94e978fe559eed08fb00e60352638a6e0173c2ddf2f3818263aec23a2d\n        /* \"Modulo02/Proyecto03/Contrato_Donations.sol\":1808:1818  msg.sender */\n      caller\n        /* \"Modulo02/Proyecto03/Contrato_Donations.sol\":1820:1829  msg.value */\n      callvalue\n        /* \"Modulo02/Proyecto03/Contrato_Donations.sol\":1783:1830  Donations_DoacaoRecebida(msg.sender, msg.value) */\n      mload(0x40)\n      tag_28\n      swap3\n      swap2\n      swap1\n      tag_29\n      jump\t// in\n    tag_28:\n      mload(0x40)\n      dup1\n      swap2\n      sub\n      swap1\n      log1\n        /* \"Modulo02/Proyecto03/Contrato_Donations.sol\":1678:1834  function doe() external payable {... */\n      jump\t// out\n        /* \"Modulo02/Proyecto03/Contrato_Donations.sol\":2083:2313  function saque(uint256 _valor) external {... */\n    tag_17:\n        /* \"Modulo02/Proyecto03/Contrato_Donations.sol\":2144:2158  i_beneficiario */\n      immutable(\"0xceebf77a833b30520287ddd9478ff51abbdffa30aa90a8d655dba0e8a79ce0c1\")\n        /* \"Modulo02/Proyecto03/Contrato_Donations.sol\":2130:2158  msg.sender != i_beneficiario */\n      0xffffffffffffffffffffffffffffffffffffffff\n      and\n        /* \"Modulo02/Proyecto03/Contrato_Donations.sol\":2130:2140  msg.sender */\n      caller\n        /* \"Modulo02/Proyecto03/Contrato_Donations.sol\":2130:2158  msg.sender != i_beneficiario */\n      0xffffffffffffffffffffffffffffffffffffffff\n      and\n      eq\n        /* \"Modulo02/Proyecto03/Contrato_Donations.sol\":2127:2224  if(msg.sender != i_beneficiario) revert Donations_SacadorNaoPermitido(msg.sender, i_beneficiario) */\n      tag_31\n      jumpi\n        /* \"Modulo02/Proyecto03/Contrato_Donations.sol\":2197:2207  msg.sender */\n      caller\n        /* \"Modulo02/Proyecto03/Contrato_Donations.sol\":2209:2223  i_beneficiario */\n      immutable(\"0xceebf77a833b30520287ddd9478ff51abbdffa30aa90a8d655dba0e8a79ce0c1\")\n        /* \"Modulo02/Proyecto03/Contrato_Donations.sol\":2167:2224  Donations_SacadorNaoPermitido(msg.sender, i_beneficiario) */\n      mload(0x40)\n      0x0e7d7efc00000000000000000000000000000000000000000000000000000000\n      dup2\n      mstore\n      0x04\n      add\n      tag_32\n      swap3\n      swap2\n      swap1\n      tag_33\n      jump\t// in\n    tag_32:\n      mload(0x40)\n      dup1\n      swap2\n      sub\n      swap1\n      revert\n        /* \"Modulo02/Proyecto03/Contrato_Donations.sol\":2127:2224  if(msg.sender != i_beneficiario) revert Donations_SacadorNaoPermitido(msg.sender, i_beneficiario) */\n    tag_31:\n        /* \"Modulo02/Proyecto03/Contrato_Donations.sol\":2236:2280  Donations_SaqueRealizado(msg.sender, _valor) */\n      0x5c94d8fc834c7e5064659c7582c8ab51ca495af36c23f0895315e4f65d2c861b\n        /* \"Modulo02/Proyecto03/Contrato_Donations.sol\":2261:2271  msg.sender */\n      caller\n        /* \"Modulo02/Proyecto03/Contrato_Donations.sol\":2273:2279  _valor */\n      dup3\n        /* \"Modulo02/Proyecto03/Contrato_Donations.sol\":2236:2280  Donations_SaqueRealizado(msg.sender, _valor) */\n      mload(0x40)\n      tag_34\n      swap3\n      swap2\n      swap1\n      tag_29\n      jump\t// in\n    tag_34:\n      mload(0x40)\n      dup1\n      swap2\n      sub\n      swap1\n      log1\n        /* \"Modulo02/Proyecto03/Contrato_Donations.sol\":2287:2309  _transferirEth(_valor) */\n      tag_35\n        /* \"Modulo02/Proyecto03/Contrato_Donations.sol\":2302:2308  _valor */\n      dup2\n        /* \"Modulo02/Proyecto03/Contrato_Donations.sol\":2287:2301  _transferirEth */\n      tag_36\n        /* \"Modulo02/Proyecto03/Contrato_Donations.sol\":2287:2309  _transferirEth(_valor) */\n      jump\t// in\n    tag_35:\n        /* \"Modulo02/Proyecto03/Contrato_Donations.sol\":2083:2313  function saque(uint256 _valor) external {... */\n      pop\n      jump\t// out\n        /* \"Modulo02/Proyecto03/Contrato_Donations.sol\":504:562  mapping(address usuario => uint256 valor) public s_doacoes */\n    tag_22:\n      mstore(0x20, 0x00)\n      dup1\n      0x00\n      mstore\n      keccak256(0x00, 0x40)\n      0x00\n      swap2\n      pop\n      swap1\n      pop\n      sload\n      dup2\n      jump\t// out\n        /* \"Modulo02/Proyecto03/Contrato_Donations.sol\":2473:2653  function _transferirEth(uint256 _valor) private {... */\n    tag_36:\n        /* \"Modulo02/Proyecto03/Contrato_Donations.sol\":2526:2538  bool sucesso */\n      0x00\n        /* \"Modulo02/Proyecto03/Contrato_Donations.sol\":2540:2557  bytes memory erro */\n      0x00\n        /* \"Modulo02/Proyecto03/Contrato_Donations.sol\":2561:2571  msg.sender */\n      caller\n        /* \"Modulo02/Proyecto03/Contrato_Donations.sol\":2561:2576  msg.sender.call */\n      0xffffffffffffffffffffffffffffffffffffffff\n      and\n        /* \"Modulo02/Proyecto03/Contrato_Donations.sol\":2584:2590  _valor */\n      dup4\n        /* \"Modulo02/Proyecto03/Contrato_Donations.sol\":2561:2595  msg.sender.call{value: _valor}(\"\") */\n      mload(0x40)\n      tag_38\n      swap1\n      tag_39\n      jump\t// in\n    tag_38:\n      0x00\n      mload(0x40)\n      dup1\n      dup4\n      sub\n      dup2\n      dup6\n      dup8\n      gas\n      call\n      swap3\n      pop\n      pop\n      pop\n      returndatasize\n      dup1\n      0x00\n      dup2\n      eq\n      tag_42\n      jumpi\n      mload(0x40)\n      swap2\n      pop\n      and(add(returndatasize, 0x3f), not(0x1f))\n      dup3\n      add\n      0x40\n      mstore\n      returndatasize\n      dup3\n      mstore\n      returndatasize\n      0x00\n      0x20\n      dup5\n      add\n      returndatacopy\n      jump(tag_41)\n    tag_42:\n      0x60\n      swap2\n      pop\n    tag_41:\n      pop\n        /* \"Modulo02/Proyecto03/Contrato_Donations.sol\":2525:2595  (bool sucesso, bytes memory erro) = msg.sender.call{value: _valor}(\"\") */\n      swap2\n      pop\n      swap2\n      pop\n        /* \"Modulo02/Proyecto03/Contrato_Donations.sol\":2603:2610  sucesso */\n      dup2\n        /* \"Modulo02/Proyecto03/Contrato_Donations.sol\":2599:2649  if(!sucesso) revert Donations_TrasacaoFalhou(erro) */\n      tag_43\n      jumpi\n        /* \"Modulo02/Proyecto03/Contrato_Donations.sol\":2644:2648  erro */\n      dup1\n        /* \"Modulo02/Proyecto03/Contrato_Donations.sol\":2619:2649  Donations_TrasacaoFalhou(erro) */\n      mload(0x40)\n      0xc56c67f400000000000000000000000000000000000000000000000000000000\n      dup2\n      mstore\n      0x04\n      add\n      tag_44\n      swap2\n      swap1\n      tag_45\n      jump\t// in\n    tag_44:\n      mload(0x40)\n      dup1\n      swap2\n      sub\n      swap1\n      revert\n        /* \"Modulo02/Proyecto03/Contrato_Donations.sol\":2599:2649  if(!sucesso) revert Donations_TrasacaoFalhou(erro) */\n    tag_43:\n        /* \"Modulo02/Proyecto03/Contrato_Donations.sol\":2521:2653  {... */\n      pop\n      pop\n        /* \"Modulo02/Proyecto03/Contrato_Donations.sol\":2473:2653  function _transferirEth(uint256 _valor) private {... */\n      pop\n      jump\t// out\n        /* \"#utility.yul\":88:205   */\n    tag_47:\n        /* \"#utility.yul\":197:198   */\n      0x00\n        /* \"#utility.yul\":194:195   */\n      0x00\n        /* \"#utility.yul\":187:199   */\n      revert\n        /* \"#utility.yul\":334:411   */\n    tag_49:\n        /* \"#utility.yul\":371:378   */\n      0x00\n        /* \"#utility.yul\":400:405   */\n      dup2\n        /* \"#utility.yul\":389:405   */\n      swap1\n      pop\n        /* \"#utility.yul\":334:411   */\n      swap2\n      swap1\n      pop\n      jump\t// out\n        /* \"#utility.yul\":417:539   */\n    tag_50:\n        /* \"#utility.yul\":490:514   */\n      tag_73\n        /* \"#utility.yul\":508:513   */\n      dup2\n        /* \"#utility.yul\":490:514   */\n      tag_49\n      jump\t// in\n    tag_73:\n        /* \"#utility.yul\":483:488   */\n      dup2\n        /* \"#utility.yul\":480:515   */\n      eq\n        /* \"#utility.yul\":470:533   */\n      tag_74\n      jumpi\n        /* \"#utility.yul\":529:530   */\n      0x00\n        /* \"#utility.yul\":526:527   */\n      0x00\n        /* \"#utility.yul\":519:531   */\n      revert\n        /* \"#utility.yul\":470:533   */\n    tag_74:\n        /* \"#utility.yul\":417:539   */\n      pop\n      jump\t// out\n        /* \"#utility.yul\":545:684   */\n    tag_51:\n        /* \"#utility.yul\":591:596   */\n      0x00\n        /* \"#utility.yul\":629:635   */\n      dup2\n        /* \"#utility.yul\":616:636   */\n      calldataload\n        /* \"#utility.yul\":607:636   */\n      swap1\n      pop\n        /* \"#utility.yul\":645:678   */\n      tag_76\n        /* \"#utility.yul\":672:677   */\n      dup2\n        /* \"#utility.yul\":645:678   */\n      tag_50\n      jump\t// in\n    tag_76:\n        /* \"#utility.yul\":545:684   */\n      swap3\n      swap2\n      pop\n      pop\n      jump\t// out\n        /* \"#utility.yul\":690:1019   */\n    tag_16:\n        /* \"#utility.yul\":749:755   */\n      0x00\n        /* \"#utility.yul\":798:800   */\n      0x20\n        /* \"#utility.yul\":786:795   */\n      dup3\n        /* \"#utility.yul\":777:784   */\n      dup5\n        /* \"#utility.yul\":773:796   */\n      sub\n        /* \"#utility.yul\":769:801   */\n      slt\n        /* \"#utility.yul\":766:885   */\n      iszero\n      tag_78\n      jumpi\n        /* \"#utility.yul\":804:883   */\n      tag_79\n      tag_47\n      jump\t// in\n    tag_79:\n        /* \"#utility.yul\":766:885   */\n    tag_78:\n        /* \"#utility.yul\":924:925   */\n      0x00\n        /* \"#utility.yul\":949:1002   */\n      tag_80\n        /* \"#utility.yul\":994:1001   */\n      dup5\n        /* \"#utility.yul\":985:991   */\n      dup3\n        /* \"#utility.yul\":974:983   */\n      dup6\n        /* \"#utility.yul\":970:992   */\n      add\n        /* \"#utility.yul\":949:1002   */\n      tag_51\n      jump\t// in\n    tag_80:\n        /* \"#utility.yul\":939:1002   */\n      swap2\n      pop\n        /* \"#utility.yul\":895:1012   */\n      pop\n        /* \"#utility.yul\":690:1019   */\n      swap3\n      swap2\n      pop\n      pop\n      jump\t// out\n        /* \"#utility.yul\":1025:1151   */\n    tag_52:\n        /* \"#utility.yul\":1062:1069   */\n      0x00\n        /* \"#utility.yul\":1102:1144   */\n      0xffffffffffffffffffffffffffffffffffffffff\n        /* \"#utility.yul\":1095:1100   */\n      dup3\n        /* \"#utility.yul\":1091:1145   */\n      and\n        /* \"#utility.yul\":1080:1145   */\n      swap1\n      pop\n        /* \"#utility.yul\":1025:1151   */\n      swap2\n      swap1\n      pop\n      jump\t// out\n        /* \"#utility.yul\":1157:1253   */\n    tag_53:\n        /* \"#utility.yul\":1194:1201   */\n      0x00\n        /* \"#utility.yul\":1223:1247   */\n      tag_83\n        /* \"#utility.yul\":1241:1246   */\n      dup3\n        /* \"#utility.yul\":1223:1247   */\n      tag_52\n      jump\t// in\n    tag_83:\n        /* \"#utility.yul\":1212:1247   */\n      swap1\n      pop\n        /* \"#utility.yul\":1157:1253   */\n      swap2\n      swap1\n      pop\n      jump\t// out\n        /* \"#utility.yul\":1259:1381   */\n    tag_54:\n        /* \"#utility.yul\":1332:1356   */\n      tag_85\n        /* \"#utility.yul\":1350:1355   */\n      dup2\n        /* \"#utility.yul\":1332:1356   */\n      tag_53\n      jump\t// in\n    tag_85:\n        /* \"#utility.yul\":1325:1330   */\n      dup2\n        /* \"#utility.yul\":1322:1357   */\n      eq\n        /* \"#utility.yul\":1312:1375   */\n      tag_86\n      jumpi\n        /* \"#utility.yul\":1371:1372   */\n      0x00\n        /* \"#utility.yul\":1368:1369   */\n      0x00\n        /* \"#utility.yul\":1361:1373   */\n      revert\n        /* \"#utility.yul\":1312:1375   */\n    tag_86:\n        /* \"#utility.yul\":1259:1381   */\n      pop\n      jump\t// out\n        /* \"#utility.yul\":1387:1526   */\n    tag_55:\n        /* \"#utility.yul\":1433:1438   */\n      0x00\n        /* \"#utility.yul\":1471:1477   */\n      dup2\n        /* \"#utility.yul\":1458:1478   */\n      calldataload\n        /* \"#utility.yul\":1449:1478   */\n      swap1\n      pop\n        /* \"#utility.yul\":1487:1520   */\n      tag_88\n        /* \"#utility.yul\":1514:1519   */\n      dup2\n        /* \"#utility.yul\":1487:1520   */\n      tag_54\n      jump\t// in\n    tag_88:\n        /* \"#utility.yul\":1387:1526   */\n      swap3\n      swap2\n      pop\n      pop\n      jump\t// out\n        /* \"#utility.yul\":1532:1861   */\n    tag_21:\n        /* \"#utility.yul\":1591:1597   */\n      0x00\n        /* \"#utility.yul\":1640:1642   */\n      0x20\n        /* \"#utility.yul\":1628:1637   */\n      dup3\n        /* \"#utility.yul\":1619:1626   */\n      dup5\n        /* \"#utility.yul\":1615:1638   */\n      sub\n        /* \"#utility.yul\":1611:1643   */\n      slt\n        /* \"#utility.yul\":1608:1727   */\n      iszero\n      tag_90\n      jumpi\n        /* \"#utility.yul\":1646:1725   */\n      tag_91\n      tag_47\n      jump\t// in\n    tag_91:\n        /* \"#utility.yul\":1608:1727   */\n    tag_90:\n        /* \"#utility.yul\":1766:1767   */\n      0x00\n        /* \"#utility.yul\":1791:1844   */\n      tag_92\n        /* \"#utility.yul\":1836:1843   */\n      dup5\n        /* \"#utility.yul\":1827:1833   */\n      dup3\n        /* \"#utility.yul\":1816:1825   */\n      dup6\n        /* \"#utility.yul\":1812:1834   */\n      add\n        /* \"#utility.yul\":1791:1844   */\n      tag_55\n      jump\t// in\n    tag_92:\n        /* \"#utility.yul\":1781:1844   */\n      swap2\n      pop\n        /* \"#utility.yul\":1737:1854   */\n      pop\n        /* \"#utility.yul\":1532:1861   */\n      swap3\n      swap2\n      pop\n      pop\n      jump\t// out\n        /* \"#utility.yul\":1867:1985   */\n    tag_56:\n        /* \"#utility.yul\":1954:1978   */\n      tag_94\n        /* \"#utility.yul\":1972:1977   */\n      dup2\n        /* \"#utility.yul\":1954:1978   */\n      tag_49\n      jump\t// in\n    tag_94:\n        /* \"#utility.yul\":1949:1952   */\n      dup3\n        /* \"#utility.yul\":1942:1979   */\n      mstore\n        /* \"#utility.yul\":1867:1985   */\n      pop\n      pop\n      jump\t// out\n        /* \"#utility.yul\":1991:2213   */\n    tag_24:\n        /* \"#utility.yul\":2084:2088   */\n      0x00\n        /* \"#utility.yul\":2122:2124   */\n      0x20\n        /* \"#utility.yul\":2111:2120   */\n      dup3\n        /* \"#utility.yul\":2107:2125   */\n      add\n        /* \"#utility.yul\":2099:2125   */\n      swap1\n      pop\n        /* \"#utility.yul\":2135:2206   */\n      tag_96\n        /* \"#utility.yul\":2203:2204   */\n      0x00\n        /* \"#utility.yul\":2192:2201   */\n      dup4\n        /* \"#utility.yul\":2188:2205   */\n      add\n        /* \"#utility.yul\":2179:2185   */\n      dup5\n        /* \"#utility.yul\":2135:2206   */\n      tag_56\n      jump\t// in\n    tag_96:\n        /* \"#utility.yul\":1991:2213   */\n      swap3\n      swap2\n      pop\n      pop\n      jump\t// out\n        /* \"#utility.yul\":2219:2399   */\n    tag_57:\n        /* \"#utility.yul\":2267:2344   */\n      0x4e487b7100000000000000000000000000000000000000000000000000000000\n        /* \"#utility.yul\":2264:2265   */\n      0x00\n        /* \"#utility.yul\":2257:2345   */\n      mstore\n        /* \"#utility.yul\":2364:2368   */\n      0x11\n        /* \"#utility.yul\":2361:2362   */\n      0x04\n        /* \"#utility.yul\":2354:2369   */\n      mstore\n        /* \"#utility.yul\":2388:2392   */\n      0x24\n        /* \"#utility.yul\":2385:2386   */\n      0x00\n        /* \"#utility.yul\":2378:2393   */\n      revert\n        /* \"#utility.yul\":2405:2596   */\n    tag_27:\n        /* \"#utility.yul\":2445:2448   */\n      0x00\n        /* \"#utility.yul\":2464:2484   */\n      tag_99\n        /* \"#utility.yul\":2482:2483   */\n      dup3\n        /* \"#utility.yul\":2464:2484   */\n      tag_49\n      jump\t// in\n    tag_99:\n        /* \"#utility.yul\":2459:2484   */\n      swap2\n      pop\n        /* \"#utility.yul\":2498:2518   */\n      tag_100\n        /* \"#utility.yul\":2516:2517   */\n      dup4\n        /* \"#utility.yul\":2498:2518   */\n      tag_49\n      jump\t// in\n    tag_100:\n        /* \"#utility.yul\":2493:2518   */\n      swap3\n      pop\n        /* \"#utility.yul\":2541:2542   */\n      dup3\n        /* \"#utility.yul\":2538:2539   */\n      dup3\n        /* \"#utility.yul\":2534:2543   */\n      add\n        /* \"#utility.yul\":2527:2543   */\n      swap1\n      pop\n        /* \"#utility.yul\":2562:2565   */\n      dup1\n        /* \"#utility.yul\":2559:2560   */\n      dup3\n        /* \"#utility.yul\":2556:2566   */\n      gt\n        /* \"#utility.yul\":2553:2589   */\n      iszero\n      tag_101\n      jumpi\n        /* \"#utility.yul\":2569:2587   */\n      tag_102\n      tag_57\n      jump\t// in\n    tag_102:\n        /* \"#utility.yul\":2553:2589   */\n    tag_101:\n        /* \"#utility.yul\":2405:2596   */\n      swap3\n      swap2\n      pop\n      pop\n      jump\t// out\n        /* \"#utility.yul\":2602:2720   */\n    tag_58:\n        /* \"#utility.yul\":2689:2713   */\n      tag_104\n        /* \"#utility.yul\":2707:2712   */\n      dup2\n        /* \"#utility.yul\":2689:2713   */\n      tag_53\n      jump\t// in\n    tag_104:\n        /* \"#utility.yul\":2684:2687   */\n      dup3\n        /* \"#utility.yul\":2677:2714   */\n      mstore\n        /* \"#utility.yul\":2602:2720   */\n      pop\n      pop\n      jump\t// out\n        /* \"#utility.yul\":2726:3058   */\n    tag_29:\n        /* \"#utility.yul\":2847:2851   */\n      0x00\n        /* \"#utility.yul\":2885:2887   */\n      0x40\n        /* \"#utility.yul\":2874:2883   */\n      dup3\n        /* \"#utility.yul\":2870:2888   */\n      add\n        /* \"#utility.yul\":2862:2888   */\n      swap1\n      pop\n        /* \"#utility.yul\":2898:2969   */\n      tag_106\n        /* \"#utility.yul\":2966:2967   */\n      0x00\n        /* \"#utility.yul\":2955:2964   */\n      dup4\n        /* \"#utility.yul\":2951:2968   */\n      add\n        /* \"#utility.yul\":2942:2948   */\n      dup6\n        /* \"#utility.yul\":2898:2969   */\n      tag_58\n      jump\t// in\n    tag_106:\n        /* \"#utility.yul\":2979:3051   */\n      tag_107\n        /* \"#utility.yul\":3047:3049   */\n      0x20\n        /* \"#utility.yul\":3036:3045   */\n      dup4\n        /* \"#utility.yul\":3032:3050   */\n      add\n        /* \"#utility.yul\":3023:3029   */\n      dup5\n        /* \"#utility.yul\":2979:3051   */\n      tag_56\n      jump\t// in\n    tag_107:\n        /* \"#utility.yul\":2726:3058   */\n      swap4\n      swap3\n      pop\n      pop\n      pop\n      jump\t// out\n        /* \"#utility.yul\":3064:3396   */\n    tag_33:\n        /* \"#utility.yul\":3185:3189   */\n      0x00\n        /* \"#utility.yul\":3223:3225   */\n      0x40\n        /* \"#utility.yul\":3212:3221   */\n      dup3\n        /* \"#utility.yul\":3208:3226   */\n      add\n        /* \"#utility.yul\":3200:3226   */\n      swap1\n      pop\n        /* \"#utility.yul\":3236:3307   */\n      tag_109\n        /* \"#utility.yul\":3304:3305   */\n      0x00\n        /* \"#utility.yul\":3293:3302   */\n      dup4\n        /* \"#utility.yul\":3289:3306   */\n      add\n        /* \"#utility.yul\":3280:3286   */\n      dup6\n        /* \"#utility.yul\":3236:3307   */\n      tag_58\n      jump\t// in\n    tag_109:\n        /* \"#utility.yul\":3317:3389   */\n      tag_110\n        /* \"#utility.yul\":3385:3387   */\n      0x20\n        /* \"#utility.yul\":3374:3383   */\n      dup4\n        /* \"#utility.yul\":3370:3388   */\n      add\n        /* \"#utility.yul\":3361:3367   */\n      dup5\n        /* \"#utility.yul\":3317:3389   */\n      tag_58\n      jump\t// in\n    tag_110:\n        /* \"#utility.yul\":3064:3396   */\n      swap4\n      swap3\n      pop\n      pop\n      pop\n      jump\t// out\n        /* \"#utility.yul\":3402:3549   */\n    tag_59:\n        /* \"#utility.yul\":3503:3514   */\n      0x00\n        /* \"#utility.yul\":3540:3543   */\n      dup2\n        /* \"#utility.yul\":3525:3543   */\n      swap1\n      pop\n        /* \"#utility.yul\":3402:3549   */\n      swap3\n      swap2\n      pop\n      pop\n      jump\t// out\n        /* \"#utility.yul\":3555:3669   */\n    tag_60:\n      pop\n      jump\t// out\n        /* \"#utility.yul\":3675:4073   */\n    tag_61:\n        /* \"#utility.yul\":3834:3837   */\n      0x00\n        /* \"#utility.yul\":3855:3938   */\n      tag_114\n        /* \"#utility.yul\":3936:3937   */\n      0x00\n        /* \"#utility.yul\":3931:3934   */\n      dup4\n        /* \"#utility.yul\":3855:3938   */\n      tag_59\n      jump\t// in\n    tag_114:\n        /* \"#utility.yul\":3848:3938   */\n      swap2\n      pop\n        /* \"#utility.yul\":3947:4040   */\n      tag_115\n        /* \"#utility.yul\":4036:4039   */\n      dup3\n        /* \"#utility.yul\":3947:4040   */\n      tag_60\n      jump\t// in\n    tag_115:\n        /* \"#utility.yul\":4065:4066   */\n      0x00\n        /* \"#utility.yul\":4060:4063   */\n      dup3\n        /* \"#utility.yul\":4056:4067   */\n      add\n        /* \"#utility.yul\":4049:4067   */\n      swap1\n      pop\n        /* \"#utility.yul\":3675:4073   */\n      swap2\n      swap1\n      pop\n      jump\t// out\n        /* \"#utility.yul\":4079:4458   */\n    tag_39:\n        /* \"#utility.yul\":4263:4266   */\n      0x00\n        /* \"#utility.yul\":4285:4432   */\n      tag_117\n        /* \"#utility.yul\":4428:4431   */\n      dup3\n        /* \"#utility.yul\":4285:4432   */\n      tag_61\n      jump\t// in\n    tag_117:\n        /* \"#utility.yul\":4278:4432   */\n      swap2\n      pop\n        /* \"#utility.yul\":4449:4452   */\n      dup2\n        /* \"#utility.yul\":4442:4452   */\n      swap1\n      pop\n        /* \"#utility.yul\":4079:4458   */\n      swap2\n      swap1\n      pop\n      jump\t// out\n        /* \"#utility.yul\":4464:4562   */\n    tag_62:\n        /* \"#utility.yul\":4515:4521   */\n      0x00\n        /* \"#utility.yul\":4549:4554   */\n      dup2\n        /* \"#utility.yul\":4543:4555   */\n      mload\n        /* \"#utility.yul\":4533:4555   */\n      swap1\n      pop\n        /* \"#utility.yul\":4464:4562   */\n      swap2\n      swap1\n      pop\n      jump\t// out\n        /* \"#utility.yul\":4568:4736   */\n    tag_63:\n        /* \"#utility.yul\":4651:4662   */\n      0x00\n        /* \"#utility.yul\":4685:4691   */\n      dup3\n        /* \"#utility.yul\":4680:4683   */\n      dup3\n        /* \"#utility.yul\":4673:4692   */\n      mstore\n        /* \"#utility.yul\":4725:4729   */\n      0x20\n        /* \"#utility.yul\":4720:4723   */\n      dup3\n        /* \"#utility.yul\":4716:4730   */\n      add\n        /* \"#utility.yul\":4701:4730   */\n      swap1\n      pop\n        /* \"#utility.yul\":4568:4736   */\n      swap3\n      swap2\n      pop\n      pop\n      jump\t// out\n        /* \"#utility.yul\":4742:4881   */\n    tag_64:\n        /* \"#utility.yul\":4831:4837   */\n      dup3\n        /* \"#utility.yul\":4826:4829   */\n      dup2\n        /* \"#utility.yul\":4821:4824   */\n      dup4\n        /* \"#utility.yul\":4815:4838   */\n      mcopy\n        /* \"#utility.yul\":4872:4873   */\n      0x00\n        /* \"#utility.yul\":4863:4869   */\n      dup4\n        /* \"#utility.yul\":4858:4861   */\n      dup4\n        /* \"#utility.yul\":4854:4870   */\n      add\n        /* \"#utility.yul\":4847:4874   */\n      mstore\n        /* \"#utility.yul\":4742:4881   */\n      pop\n      pop\n      pop\n      jump\t// out\n        /* \"#utility.yul\":4887:4989   */\n    tag_65:\n        /* \"#utility.yul\":4928:4934   */\n      0x00\n        /* \"#utility.yul\":4979:4981   */\n      0x1f\n        /* \"#utility.yul\":4975:4982   */\n      not\n        /* \"#utility.yul\":4970:4972   */\n      0x1f\n        /* \"#utility.yul\":4963:4968   */\n      dup4\n        /* \"#utility.yul\":4959:4973   */\n      add\n        /* \"#utility.yul\":4955:4983   */\n      and\n        /* \"#utility.yul\":4945:4983   */\n      swap1\n      pop\n        /* \"#utility.yul\":4887:4989   */\n      swap2\n      swap1\n      pop\n      jump\t// out\n        /* \"#utility.yul\":4995:5368   */\n    tag_66:\n        /* \"#utility.yul\":5081:5084   */\n      0x00\n        /* \"#utility.yul\":5109:5147   */\n      tag_123\n        /* \"#utility.yul\":5141:5146   */\n      dup3\n        /* \"#utility.yul\":5109:5147   */\n      tag_62\n      jump\t// in\n    tag_123:\n        /* \"#utility.yul\":5163:5233   */\n      tag_124\n        /* \"#utility.yul\":5226:5232   */\n      dup2\n        /* \"#utility.yul\":5221:5224   */\n      dup6\n        /* \"#utility.yul\":5163:5233   */\n      tag_63\n      jump\t// in\n    tag_124:\n        /* \"#utility.yul\":5156:5233   */\n      swap4\n      pop\n        /* \"#utility.yul\":5242:5307   */\n      tag_125\n        /* \"#utility.yul\":5300:5306   */\n      dup2\n        /* \"#utility.yul\":5295:5298   */\n      dup6\n        /* \"#utility.yul\":5288:5292   */\n      0x20\n        /* \"#utility.yul\":5281:5286   */\n      dup7\n        /* \"#utility.yul\":5277:5293   */\n      add\n        /* \"#utility.yul\":5242:5307   */\n      tag_64\n      jump\t// in\n    tag_125:\n        /* \"#utility.yul\":5332:5361   */\n      tag_126\n        /* \"#utility.yul\":5354:5360   */\n      dup2\n        /* \"#utility.yul\":5332:5361   */\n      tag_65\n      jump\t// in\n    tag_126:\n        /* \"#utility.yul\":5327:5330   */\n      dup5\n        /* \"#utility.yul\":5323:5362   */\n      add\n        /* \"#utility.yul\":5316:5362   */\n      swap2\n      pop\n        /* \"#utility.yul\":5085:5368   */\n      pop\n        /* \"#utility.yul\":4995:5368   */\n      swap3\n      swap2\n      pop\n      pop\n      jump\t// out\n        /* \"#utility.yul\":5374:5683   */\n    tag_45:\n        /* \"#utility.yul\":5485:5489   */\n      0x00\n        /* \"#utility.yul\":5523:5525   */\n      0x20\n        /* \"#utility.yul\":5512:5521   */\n      dup3\n        /* \"#utility.yul\":5508:5526   */\n      add\n        /* \"#utility.yul\":5500:5526   */\n      swap1\n      pop\n        /* \"#utility.yul\":5572:5581   */\n      dup2\n        /* \"#utility.yul\":5566:5570   */\n      dup2\n        /* \"#utility.yul\":5562:5582   */\n      sub\n        /* \"#utility.yul\":5558:5559   */\n      0x00\n        /* \"#utility.yul\":5547:5556   */\n      dup4\n        /* \"#utility.yul\":5543:5560   */\n      add\n        /* \"#utility.yul\":5536:5583   */\n      mstore\n        /* \"#utility.yul\":5600:5676   */\n      tag_128\n        /* \"#utility.yul\":5671:5675   */\n      dup2\n        /* \"#utility.yul\":5662:5668   */\n      dup5\n        /* \"#utility.yul\":5600:5676   */\n      tag_66\n      jump\t// in\n    tag_128:\n        /* \"#utility.yul\":5592:5676   */\n      swap1\n      pop\n        /* \"#utility.yul\":5374:5683   */\n      swap3\n      swap2\n      pop\n      pop\n      jump\t// out\n\n    auxdata: 0xa26469706673582212201cc734d3e8f6c4a3508dad36289132d537abb6bbdd58158301f03db8cbf22e9664736f6c634300081e0033\n}\n",
				"bytecode": {
					"linkReferences": {},
					"object": "60a060405234801561000f575f5ffd5b50604051610727380380610727833981810160405281019061003191906100c9565b8073ffffffffffffffffffffffffffffffffffffffff1660808173ffffffffffffffffffffffffffffffffffffffff1681525050506100f4565b5f5ffd5b5f73ffffffffffffffffffffffffffffffffffffffff82169050919050565b5f6100988261006f565b9050919050565b6100a88161008e565b81146100b2575f5ffd5b50565b5f815190506100c38161009f565b92915050565b5f602082840312156100de576100dd61006b565b5b5f6100eb848285016100b5565b91505092915050565b6080516106146101135f395f818161018701526101db01526106145ff3fe608060405260043610610037575f3560e01c80633ccdc7401461004b578063a8559d0814610055578063c82f6b1a1461007d5761003e565b3661003e57005b348015610049575f5ffd5b005b6100536100b9565b005b348015610060575f5ffd5b5061007b60048036038101906100769190610378565b610185565b005b348015610088575f5ffd5b506100a3600480360381019061009e91906103fd565b61027c565b6040516100b09190610437565b60405180910390f35b345f5f3373ffffffffffffffffffffffffffffffffffffffff1673ffffffffffffffffffffffffffffffffffffffff1681526020019081526020015f205f828254610104919061047d565b9250508190555f5f3373ffffffffffffffffffffffffffffffffffffffff1673ffffffffffffffffffffffffffffffffffffffff1681526020019081526020015f20819055507f1fa51f94e978fe559eed08fb00e60352638a6e0173c2ddf2f3818263aec23a2d333460405161017b9291906104bf565b60405180910390a1565b7f000000000000000000000000000000000000000000000000000000000000000073ffffffffffffffffffffffffffffffffffffffff163373ffffffffffffffffffffffffffffffffffffffff161461023757337f00000000000000000000000000000000000000000000000000000000000000006040517f0e7d7efc00000000000000000000000000000000000000000000000000000000815260040161022e9291906104e6565b60405180910390fd5b7f5c94d8fc834c7e5064659c7582c8ab51ca495af36c23f0895315e4f65d2c861b33826040516102689291906104bf565b60405180910390a161027981610290565b50565b5f602052805f5260405f205f915090505481565b5f5f3373ffffffffffffffffffffffffffffffffffffffff16836040516102b69061053a565b5f6040518083038185875af1925050503d805f81146102f0576040519150601f19603f3d011682016040523d82523d5f602084013e6102f5565b606091505b50915091508161033c57806040517fc56c67f400000000000000000000000000000000000000000000000000000000815260040161033391906105be565b60405180910390fd5b505050565b5f5ffd5b5f819050919050565b61035781610345565b8114610361575f5ffd5b50565b5f813590506103728161034e565b92915050565b5f6020828403121561038d5761038c610341565b5b5f61039a84828501610364565b91505092915050565b5f73ffffffffffffffffffffffffffffffffffffffff82169050919050565b5f6103cc826103a3565b9050919050565b6103dc816103c2565b81146103e6575f5ffd5b50565b5f813590506103f7816103d3565b92915050565b5f6020828403121561041257610411610341565b5b5f61041f848285016103e9565b91505092915050565b61043181610345565b82525050565b5f60208201905061044a5f830184610428565b92915050565b7f4e487b71000000000000000000000000000000000000000000000000000000005f52601160045260245ffd5b5f61048782610345565b915061049283610345565b92508282019050808211156104aa576104a9610450565b5b92915050565b6104b9816103c2565b82525050565b5f6040820190506104d25f8301856104b0565b6104df6020830184610428565b9392505050565b5f6040820190506104f95f8301856104b0565b61050660208301846104b0565b9392505050565b5f81905092915050565b50565b5f6105255f8361050d565b915061053082610517565b5f82019050919050565b5f6105448261051a565b9150819050919050565b5f81519050919050565b5f82825260208201905092915050565b8281835e5f83830152505050565b5f601f19601f8301169050919050565b5f6105908261054e565b61059a8185610558565b93506105aa818560208601610568565b6105b381610576565b840191505092915050565b5f6020820190508181035f8301526105d68184610586565b90509291505056fea26469706673582212201cc734d3e8f6c4a3508dad36289132d537abb6bbdd58158301f03db8cbf22e9664736f6c634300081e0033",
					"opcodes": "PUSH1 0xA0 PUSH1 0x40 MSTORE CALLVALUE DUP1 ISZERO PUSH2 0xF JUMPI PUSH0 PUSH0 REVERT JUMPDEST POP PUSH1 0x40 MLOAD PUSH2 0x727 CODESIZE SUB DUP1 PUSH2 0x727 DUP4 CODECOPY DUP2 DUP2 ADD PUSH1 0x40 MSTORE DUP2 ADD SWAP1 PUSH2 0x31 SWAP2 SWAP1 PUSH2 0xC9 JUMP JUMPDEST DUP1 PUSH20 0xFFFFFFFFFFFFFFFFFFFFFFFFFFFFFFFFFFFFFFFF AND PUSH1 0x80 DUP2 PUSH20 0xFFFFFFFFFFFFFFFFFFFFFFFFFFFFFFFFFFFFFFFF AND DUP2 MSTORE POP POP POP PUSH2 0xF4 JUMP JUMPDEST PUSH0 PUSH0 REVERT JUMPDEST PUSH0 PUSH20 0xFFFFFFFFFFFFFFFFFFFFFFFFFFFFFFFFFFFFFFFF DUP3 AND SWAP1 POP SWAP2 SWAP1 POP JUMP JUMPDEST PUSH0 PUSH2 0x98 DUP3 PUSH2 0x6F JUMP JUMPDEST SWAP1 POP SWAP2 SWAP1 POP JUMP JUMPDEST PUSH2 0xA8 DUP2 PUSH2 0x8E JUMP JUMPDEST DUP2 EQ PUSH2 0xB2 JUMPI PUSH0 PUSH0 REVERT JUMPDEST POP JUMP JUMPDEST PUSH0 DUP2 MLOAD SWAP1 POP PUSH2 0xC3 DUP2 PUSH2 0x9F JUMP JUMPDEST SWAP3 SWAP2 POP POP JUMP JUMPDEST PUSH0 PUSH1 0x20 DUP3 DUP5 SUB SLT ISZERO PUSH2 0xDE JUMPI PUSH2 0xDD PUSH2 0x6B JUMP JUMPDEST JUMPDEST PUSH0 PUSH2 0xEB DUP5 DUP3 DUP6 ADD PUSH2 0xB5 JUMP JUMPDEST SWAP2 POP POP SWAP3 SWAP2 POP POP JUMP JUMPDEST PUSH1 0x80 MLOAD PUSH2 0x614 PUSH2 0x113 PUSH0 CODECOPY PUSH0 DUP2 DUP2 PUSH2 0x187 ADD MSTORE PUSH2 0x1DB ADD MSTORE PUSH2 0x614 PUSH0 RETURN INVALID PUSH1 0x80 PUSH1 0x40 MSTORE PUSH1 0x4 CALLDATASIZE LT PUSH2 0x37 JUMPI PUSH0 CALLDATALOAD PUSH1 0xE0 SHR DUP1 PUSH4 0x3CCDC740 EQ PUSH2 0x4B JUMPI DUP1 PUSH4 0xA8559D08 EQ PUSH2 0x55 JUMPI DUP1 PUSH4 0xC82F6B1A EQ PUSH2 0x7D JUMPI PUSH2 0x3E JUMP JUMPDEST CALLDATASIZE PUSH2 0x3E JUMPI STOP JUMPDEST CALLVALUE DUP1 ISZERO PUSH2 0x49 JUMPI PUSH0 PUSH0 REVERT JUMPDEST STOP JUMPDEST PUSH2 0x53 PUSH2 0xB9 JUMP JUMPDEST STOP JUMPDEST CALLVALUE DUP1 ISZERO PUSH2 0x60 JUMPI PUSH0 PUSH0 REVERT JUMPDEST POP PUSH2 0x7B PUSH1 0x4 DUP1 CALLDATASIZE SUB DUP2 ADD SWAP1 PUSH2 0x76 SWAP2 SWAP1 PUSH2 0x378 JUMP JUMPDEST PUSH2 0x185 JUMP JUMPDEST STOP JUMPDEST CALLVALUE DUP1 ISZERO PUSH2 0x88 JUMPI PUSH0 PUSH0 REVERT JUMPDEST POP PUSH2 0xA3 PUSH1 0x4 DUP1 CALLDATASIZE SUB DUP2 ADD SWAP1 PUSH2 0x9E SWAP2 SWAP1 PUSH2 0x3FD JUMP JUMPDEST PUSH2 0x27C JUMP JUMPDEST PUSH1 0x40 MLOAD PUSH2 0xB0 SWAP2 SWAP1 PUSH2 0x437 JUMP JUMPDEST PUSH1 0x40 MLOAD DUP1 SWAP2 SUB SWAP1 RETURN JUMPDEST CALLVALUE PUSH0 PUSH0 CALLER PUSH20 0xFFFFFFFFFFFFFFFFFFFFFFFFFFFFFFFFFFFFFFFF AND PUSH20 0xFFFFFFFFFFFFFFFFFFFFFFFFFFFFFFFFFFFFFFFF AND DUP2 MSTORE PUSH1 0x20 ADD SWAP1 DUP2 MSTORE PUSH1 0x20 ADD PUSH0 KECCAK256 PUSH0 DUP3 DUP3 SLOAD PUSH2 0x104 SWAP2 SWAP1 PUSH2 0x47D JUMP JUMPDEST SWAP3 POP POP DUP2 SWAP1 SSTORE PUSH0 PUSH0 CALLER PUSH20 0xFFFFFFFFFFFFFFFFFFFFFFFFFFFFFFFFFFFFFFFF AND PUSH20 0xFFFFFFFFFFFFFFFFFFFFFFFFFFFFFFFFFFFFFFFF AND DUP2 MSTORE PUSH1 0x20 ADD SWAP1 DUP2 MSTORE PUSH1 0x20 ADD PUSH0 KECCAK256 DUP2 SWAP1 SSTORE POP PUSH32 0x1FA51F94E978FE559EED08FB00E60352638A6E0173C2DDF2F3818263AEC23A2D CALLER CALLVALUE PUSH1 0x40 MLOAD PUSH2 0x17B SWAP3 SWAP2 SWAP1 PUSH2 0x4BF JUMP JUMPDEST PUSH1 0x40 MLOAD DUP1 SWAP2 SUB SWAP1 LOG1 JUMP JUMPDEST PUSH32 0x0 PUSH20 0xFFFFFFFFFFFFFFFFFFFFFFFFFFFFFFFFFFFFFFFF AND CALLER PUSH20 0xFFFFFFFFFFFFFFFFFFFFFFFFFFFFFFFFFFFFFFFF AND EQ PUSH2 0x237 JUMPI CALLER PUSH32 0x0 PUSH1 0x40 MLOAD PUSH32 0xE7D7EFC00000000000000000000000000000000000000000000000000000000 DUP2 MSTORE PUSH1 0x4 ADD PUSH2 0x22E SWAP3 SWAP2 SWAP1 PUSH2 0x4E6 JUMP JUMPDEST PUSH1 0x40 MLOAD DUP1 SWAP2 SUB SWAP1 REVERT JUMPDEST PUSH32 0x5C94D8FC834C7E5064659C7582C8AB51CA495AF36C23F0895315E4F65D2C861B CALLER DUP3 PUSH1 0x40 MLOAD PUSH2 0x268 SWAP3 SWAP2 SWAP1 PUSH2 0x4BF JUMP JUMPDEST PUSH1 0x40 MLOAD DUP1 SWAP2 SUB SWAP1 LOG1 PUSH2 0x279 DUP2 PUSH2 0x290 JUMP JUMPDEST POP JUMP JUMPDEST PUSH0 PUSH1 0x20 MSTORE DUP1 PUSH0 MSTORE PUSH1 0x40 PUSH0 KECCAK256 PUSH0 SWAP2 POP SWAP1 POP SLOAD DUP2 JUMP JUMPDEST PUSH0 PUSH0 CALLER PUSH20 0xFFFFFFFFFFFFFFFFFFFFFFFFFFFFFFFFFFFFFFFF AND DUP4 PUSH1 0x40 MLOAD PUSH2 0x2B6 SWAP1 PUSH2 0x53A JUMP JUMPDEST PUSH0 PUSH1 0x40 MLOAD DUP1 DUP4 SUB DUP2 DUP6 DUP8 GAS CALL SWAP3 POP POP POP RETURNDATASIZE DUP1 PUSH0 DUP2 EQ PUSH2 0x2F0 JUMPI PUSH1 0x40 MLOAD SWAP2 POP PUSH1 0x1F NOT PUSH1 0x3F RETURNDATASIZE ADD AND DUP3 ADD PUSH1 0x40 MSTORE RETURNDATASIZE DUP3 MSTORE RETURNDATASIZE PUSH0 PUSH1 0x20 DUP5 ADD RETURNDATACOPY PUSH2 0x2F5 JUMP JUMPDEST PUSH1 0x60 SWAP2 POP JUMPDEST POP SWAP2 POP SWAP2 POP DUP2 PUSH2 0x33C JUMPI DUP1 PUSH1 0x40 MLOAD PUSH32 0xC56C67F400000000000000000000000000000000000000000000000000000000 DUP2 MSTORE PUSH1 0x4 ADD PUSH2 0x333 SWAP2 SWAP1 PUSH2 0x5BE JUMP JUMPDEST PUSH1 0x40 MLOAD DUP1 SWAP2 SUB SWAP1 REVERT JUMPDEST POP POP POP JUMP JUMPDEST PUSH0 PUSH0 REVERT JUMPDEST PUSH0 DUP2 SWAP1 POP SWAP2 SWAP1 POP JUMP JUMPDEST PUSH2 0x357 DUP2 PUSH2 0x345 JUMP JUMPDEST DUP2 EQ PUSH2 0x361 JUMPI PUSH0 PUSH0 REVERT JUMPDEST POP JUMP JUMPDEST PUSH0 DUP2 CALLDATALOAD SWAP1 POP PUSH2 0x372 DUP2 PUSH2 0x34E JUMP JUMPDEST SWAP3 SWAP2 POP POP JUMP JUMPDEST PUSH0 PUSH1 0x20 DUP3 DUP5 SUB SLT ISZERO PUSH2 0x38D JUMPI PUSH2 0x38C PUSH2 0x341 JUMP JUMPDEST JUMPDEST PUSH0 PUSH2 0x39A DUP5 DUP3 DUP6 ADD PUSH2 0x364 JUMP JUMPDEST SWAP2 POP POP SWAP3 SWAP2 POP POP JUMP JUMPDEST PUSH0 PUSH20 0xFFFFFFFFFFFFFFFFFFFFFFFFFFFFFFFFFFFFFFFF DUP3 AND SWAP1 POP SWAP2 SWAP1 POP JUMP JUMPDEST PUSH0 PUSH2 0x3CC DUP3 PUSH2 0x3A3 JUMP JUMPDEST SWAP1 POP SWAP2 SWAP1 POP JUMP JUMPDEST PUSH2 0x3DC DUP2 PUSH2 0x3C2 JUMP JUMPDEST DUP2 EQ PUSH2 0x3E6 JUMPI PUSH0 PUSH0 REVERT JUMPDEST POP JUMP JUMPDEST PUSH0 DUP2 CALLDATALOAD SWAP1 POP PUSH2 0x3F7 DUP2 PUSH2 0x3D3 JUMP JUMPDEST SWAP3 SWAP2 POP POP JUMP JUMPDEST PUSH0 PUSH1 0x20 DUP3 DUP5 SUB SLT ISZERO PUSH2 0x412 JUMPI PUSH2 0x411 PUSH2 0x341 JUMP JUMPDEST JUMPDEST PUSH0 PUSH2 0x41F DUP5 DUP3 DUP6 ADD PUSH2 0x3E9 JUMP JUMPDEST SWAP2 POP POP SWAP3 SWAP2 POP POP JUMP JUMPDEST PUSH2 0x431 DUP2 PUSH2 0x345 JUMP JUMPDEST DUP3 MSTORE POP POP JUMP JUMPDEST PUSH0 PUSH1 0x20 DUP3 ADD SWAP1 POP PUSH2 0x44A PUSH0 DUP4 ADD DUP5 PUSH2 0x428 JUMP JUMPDEST SWAP3 SWAP2 POP POP JUMP JUMPDEST PUSH32 0x4E487B7100000000000000000000000000000000000000000000000000000000 PUSH0 MSTORE PUSH1 0x11 PUSH1 0x4 MSTORE PUSH1 0x24 PUSH0 REVERT JUMPDEST PUSH0 PUSH2 0x487 DUP3 PUSH2 0x345 JUMP JUMPDEST SWAP2 POP PUSH2 0x492 DUP4 PUSH2 0x345 JUMP JUMPDEST SWAP3 POP DUP3 DUP3 ADD SWAP1 POP DUP1 DUP3 GT ISZERO PUSH2 0x4AA JUMPI PUSH2 0x4A9 PUSH2 0x450 JUMP JUMPDEST JUMPDEST SWAP3 SWAP2 POP POP JUMP JUMPDEST PUSH2 0x4B9 DUP2 PUSH2 0x3C2 JUMP JUMPDEST DUP3 MSTORE POP POP JUMP JUMPDEST PUSH0 PUSH1 0x40 DUP3 ADD SWAP1 POP PUSH2 0x4D2 PUSH0 DUP4 ADD DUP6 PUSH2 0x4B0 JUMP JUMPDEST PUSH2 0x4DF PUSH1 0x20 DUP4 ADD DUP5 PUSH2 0x428 JUMP JUMPDEST SWAP4 SWAP3 POP POP POP JUMP JUMPDEST PUSH0 PUSH1 0x40 DUP3 ADD SWAP1 POP PUSH2 0x4F9 PUSH0 DUP4 ADD DUP6 PUSH2 0x4B0 JUMP JUMPDEST PUSH2 0x506 PUSH1 0x20 DUP4 ADD DUP5 PUSH2 0x4B0 JUMP JUMPDEST SWAP4 SWAP3 POP POP POP JUMP JUMPDEST PUSH0 DUP2 SWAP1 POP SWAP3 SWAP2 POP POP JUMP JUMPDEST POP JUMP JUMPDEST PUSH0 PUSH2 0x525 PUSH0 DUP4 PUSH2 0x50D JUMP JUMPDEST SWAP2 POP PUSH2 0x530 DUP3 PUSH2 0x517 JUMP JUMPDEST PUSH0 DUP3 ADD SWAP1 POP SWAP2 SWAP1 POP JUMP JUMPDEST PUSH0 PUSH2 0x544 DUP3 PUSH2 0x51A JUMP JUMPDEST SWAP2 POP DUP2 SWAP1 POP SWAP2 SWAP1 POP JUMP JUMPDEST PUSH0 DUP2 MLOAD SWAP1 POP SWAP2 SWAP1 POP JUMP JUMPDEST PUSH0 DUP3 DUP3 MSTORE PUSH1 0x20 DUP3 ADD SWAP1 POP SWAP3 SWAP2 POP POP JUMP JUMPDEST DUP3 DUP2 DUP4 MCOPY PUSH0 DUP4 DUP4 ADD MSTORE POP POP POP JUMP JUMPDEST PUSH0 PUSH1 0x1F NOT PUSH1 0x1F DUP4 ADD AND SWAP1 POP SWAP2 SWAP1 POP JUMP JUMPDEST PUSH0 PUSH2 0x590 DUP3 PUSH2 0x54E JUMP JUMPDEST PUSH2 0x59A DUP2 DUP6 PUSH2 0x558 JUMP JUMPDEST SWAP4 POP PUSH2 0x5AA DUP2 DUP6 PUSH1 0x20 DUP7 ADD PUSH2 0x568 JUMP JUMPDEST PUSH2 0x5B3 DUP2 PUSH2 0x576 JUMP JUMPDEST DUP5 ADD SWAP2 POP POP SWAP3 SWAP2 POP POP JUMP JUMPDEST PUSH0 PUSH1 0x20 DUP3 ADD SWAP1 POP DUP2 DUP2 SUB PUSH0 DUP4 ADD MSTORE PUSH2 0x5D6 DUP2 DUP5 PUSH2 0x586 JUMP JUMPDEST SWAP1 POP SWAP3 SWAP2 POP POP JUMP INVALID LOG2 PUSH5 0x6970667358 0x22 SLT KECCAK256 SHR 0xC7 CALLVALUE 0xD3 0xE8 0xF6 0xC4 LOG3 POP DUP14 0xAD CALLDATASIZE 0x28 SWAP2 ORIGIN 0xD5 CALLDATACOPY 0xAB 0xB6 0xBB 0xDD PC ISZERO DUP4 ADD CREATE RETURNDATASIZE 0xB8 0xCB CALLCODE 0x2E SWAP7 PUSH5 0x736F6C6343 STOP ADDMOD 0x1E STOP CALLER "
				},
				"gasEstimates": {
					"creation": {
						"codeDepositCost": "311200",
						"executionCost": "infinite",
						"totalCost": "infinite"
					},
					"external": {
						"": "153",
						"doe()": "infinite",
						"s_doacoes(address)": "2823",
						"saque(uint256)": "infinite"
					},
					"internal": {
						"_transferirEth(uint256)": "infinite"
					}
				},
				"methodIdentifiers": {
					"doe()": "3ccdc740",
					"s_doacoes(address)": "c82f6b1a",
					"saque(uint256)": "a8559d08"
				}
			},
			"storageLayout": {
				"storage": [
					{
						"astId": 10,
						"contract": "Modulo02/Proyecto03/Contrato_Donations.sol:Donations",
						"label": "s_doacoes",
						"offset": 0,
						"slot": "0",
						"type": "t_mapping(t_address,t_uint256)"
					}
				],
				"types": {
					"t_address": {
						"encoding": "inplace",
						"label": "address",
						"numberOfBytes": "20"
					},
					"t_mapping(t_address,t_uint256)": {
						"encoding": "mapping",
						"key": "t_address",
						"label": "mapping(address => uint256)",
						"numberOfBytes": "32",
						"value": "t_uint256"
					},
					"t_uint256": {
						"encoding": "inplace",
						"label": "uint256",
						"numberOfBytes": "32"
					}
				}
			},
			"userdoc": {
				"errors": {
					"Donations_SacadorNaoPermitido(address,address)": [
						{
							"notice": "erro emitido quando um endereço diferente do beneficiario tentar sacar"
						}
					],
					"Donations_TrasacaoFalhou(bytes)": [
						{
							"notice": "erro emitido quando uma transação falha"
						}
					]
				},
				"events": {
					"Donations_DoacaoRecebida(address,uint256)": {
						"notice": "evento emitido quando uma nova doação é feita"
					},
					"Donations_SaqueRealizado(address,uint256)": {
						"notice": "evento emitido quando um saque é realizado"
					}
				},
				"kind": "user",
				"methods": {
					"doe()": {
						"notice": "função para receber doações"
					},
					"s_doacoes(address)": {
						"notice": "mapping para armazenar o valor doado por usuário"
					}
				},
				"notice": "Esse é um contrato para fins educacionais.",
				"version": 1
			}
		}
	}
}